:020000040800F2
:1000000000000120051D0008651C00086B1C00088D
:10001000711C0008771C00087D1C0008000000000F
:10002000000000000000000000000000E16800087F
:10003000831C000800000000316B0008996B000869
:10004000551D0008551D0008551D0008551D0008C8
:10005000551D0008551D0008551D0008551D0008B8
:10006000551D0008551D0008551D0008551D0008A8
:10007000551D0008551D0008551D0008551D000898
:10008000551D0008551D0008551D00080000000002
:10009000000000000000000000000000551D0008E6
:1000A000551D0008551D0008551D0008911C00082D
:1000B000A51C0008B91C0008551D0008551D0008A6
:1000C000551D0008551D0008551D0008551D000848
:1000D000551D0008CD1C0008551D0008000000003B
:1000E000551D0008551D0008551D000800000000A2
:1000F000000000000000000000000000551D000886
:1001000000000000551D0008551D0008551D000881
:1001100000000000000000000000000000000000DF
:10012000551D0008551D0008551D0008551D0008E7
:10013000551D000800000000000000000000000045
:10014000000000000000000000000000551D000835
:10015000551D0008551D0008551D0008551D0008B7
:10016000551D0008551D000800000000000000009B
:10017000000000000000000000000000000000007F
:1001800000000000551D00080000000000000000F5
:04019000551D0008F1
:1001A00010B5054C237833B9044B13B10448AFF3B1
:1001B00000800123237010BD10000020000000000B
:1001C0000071000808B5034B1BB103490348AFF3A6
:1001D000008008BD0000000014000020007100082D
:1001E00081F0004102E000BF83F0004330B54FEAE8
:1001F00041044FEA430594EA050F08BF90EA020F55
:100200001FBF54EA000C55EA020C7FEA645C7FEAE7
:10021000655C00F0E2804FEA5454D4EB5555B8BF0A
:100220006D420CDD2C4480EA020281EA030382EA7B
:10023000000083EA010180EA020281EA0303362D0D
:1002400088BF30BD11F0004F4FEA01314FF4801CE0
:100250004CEA113102D0404261EB410113F0004FF2
:100260004FEA03334CEA133302D0524263EB4303A9
:1002700094EA050F00F0A780A4F10104D5F1200E47
:100280000DDB02FA0EFC22FA05F2801841F10001A2
:1002900003FA0EF2801843FA05F359410EE0A5F176
:1002A00020050EF1200E012A03FA0EFC28BF4CF0A7
:1002B000020C43FA05F3C01851EBE37101F000455D
:1002C00007D54FF0000EDCF1000C7EEB00006EEB6A
:1002D0000101B1F5801F1BD3B1F5001F0CD34908F4
:1002E0005FEA30004FEA3C0C04F101044FEA44524B
:1002F00012F5800F80F09A80BCF1004F08BF5FEAD2
:10030000500C50F1000041EB045141EA050130BDB1
:100310005FEA4C0C404141EB0101013C28BFB1F5C3
:10032000801FE9D291F0000F04BF01460020B1FA0E
:1003300081F308BF2033A3F10B03B3F120020CDAE1
:100340000C3208DD02F1140CC2F10C0201FA0CF0BF
:1003500021FA02F10CE002F11402D8BFC2F1200C24
:1003600001FA02F120FA0CFCDCBF41EA0C019040DA
:10037000E41AA2BF01EB0451294330BD6FEA040423
:100380001F3C1CDA0C340EDC04F11404C4F120020E
:1003900020FA04F001FA02F340EA030021FA04F320
:1003A00045EA030130BDC4F10C04C4F1200220FA77
:1003B00002F001FA04F340EA0300294630BD21FAB5
:1003C00004F0294630BD94F0000F83F4801306BF7B
:1003D00081F480110134013D4EE77FEA645C18BF6F
:1003E0007FEA655C29D094EA050F08BF90EA020F06
:1003F00005D054EA000C04BF1946104630BD91EAFE
:10040000030F1EBF0021002030BD5FEA545C05D100
:100410004000494128BF41F0004130BD14F580043F
:100420003CBF01F5801130BD01F0004545F0FE41B3
:1004300041F470014FF0000030BD7FEA645C1ABFE8
:10044000194610467FEA655C1CBF0B46024650EA1F
:10045000013406BF52EA033591EA030F41F400214B
:1004600030BD00BF90F0000F04BF0021704730B5D1
:100470004FF4806404F132044FF000054FF00001A6
:1004800050E700BF90F0000F04BF0021704730B567
:100490004FF4806404F1320410F0004548BF40423C
:1004A0004FF000013EE700BF42004FEAE2014FEA91
:1004B00031014FEA02701FBF12F07F4393F07F4F6C
:1004C00081F06051704732F07F4208BF704793F06F
:1004D0007F4F04BF41F40021704730B54FF4607482
:1004E00001F0004521F000411CE700BF50EA010285
:1004F00008BF704730B54FF000050AE050EA01022E
:1005000008BF704730B511F0004502D5404261EB9D
:1005100041014FF4806404F132045FEA915C3FF4DE
:10052000D8AE4FF003025FEADC0C18BF03325FEA7B
:10053000DC0C18BF033202EBDC02C2F1200300FA2C
:1005400003FC20FA02F001FA03FE40EA0E0021FA51
:1005500002F11444BDE600BF70B54FF0FF0C4CF43F
:10056000E06C1CEA11541DBF1CEA135594EA0C0FF1
:1005700095EA0C0F00F0DEF82C4481EA030621EA2C
:100580004C5123EA4C5350EA013518BF52EA033567
:1005900041F4801143F4801338D0A0FB02CE4FF019
:1005A0000005E1FB02E506F00042E0FB03E54FF049
:1005B0000006E1FB03569CF0000F18BF4EF0010E41
:1005C000A4F1FF04B6F5007F64F5407404D25FEA3D
:1005D0004E0E6D4146EB060642EAC62141EA5551F0
:1005E0004FEAC52040EA5E504FEACE2EB4F1FD0C32
:1005F00088BFBCF5E06F1ED8BEF1004F08BF5FEAB0
:10060000500E50F1000041EB045170BD06F0004661
:1006100046EA010140EA020081EA0301B4EB5C040E
:10062000C2BFD4EB0C0541EA045170BD41F4801106
:100630004FF0000E013C00F3AB8014F1360FDEBF2B
:10064000002001F0004170BDC4F10004203C35DA07
:100650000C341BDC04F11404C4F1200500FA05F38A
:1006600020FA04F001FA05F240EA020001F000422B
:1006700021F0004110EBD37021FA04F642EB0601A1
:100680005EEA430E08BF20EAD37070BDC4F10C04CB
:10069000C4F1200500FA04F320FA05F001FA04F28F
:1006A00040EA020001F0004110EBD37041F100017B
:1006B0005EEA430E08BF20EAD37070BDC4F1200586
:1006C00000FA05F24EEA020E20FA04F301FA05F2EE
:1006D00043EA020321FA04F001F0004121FA04F296
:1006E00020EA020000EBD3705EEA430E08BF20EA66
:1006F000D37070BD94F0000F0FD101F000464000A0
:1007000041EB010111F4801F08BF013CF7D041EA21
:10071000060195F0000F18BF704703F00046520025
:1007200043EB030313F4801F08BF013DF7D043EAF6
:100730000603704794EA0C0F0CEA135518BF95EAAC
:100740000C0F0CD050EA410618BF52EA4306D1D133
:1007500081EA030101F000414FF0000070BD50EA52
:10076000410606BF1046194652EA430619D094EADC
:100770000C0F02D150EA013613D195EA0C0F05D1C6
:1007800052EA03361CBF104619460AD181EA03011A
:1007900001F0004141F0FE4141F470014FF00000D2
:1007A00070BD41F0FE4141F4780170BD70B54FF06D
:1007B000FF0C4CF4E06C1CEA11541DBF1CEA1355ED
:1007C00094EA0C0F95EA0C0F00F0A7F8A4EB0504CF
:1007D00081EA030E52EA03354FEA013100F08880C6
:1007E0004FEA03334FF0805545EA131343EA12638F
:1007F0004FEA022245EA111545EA10654FEA002644
:100800000EF000419D4208BF964244F1FD0404F5FC
:10081000407402D25B084FEA3202B61A65EB030558
:100820005B084FEA32024FF480104FF4002CB6EB15
:10083000020E75EB030E22BFB61A754640EA0C0095
:100840005B084FEA3202B6EB020E75EB030E22BFD5
:10085000B61A754640EA5C005B084FEA3202B6EB16
:10086000020E75EB030E22BFB61A754640EA9C00D5
:100870005B084FEA3202B6EB020E75EB030E22BFA5
:10088000B61A754640EADC0055EA060E18D04FEA63
:10089000051545EA16754FEA06164FEAC30343EA03
:1008A00052734FEAC2025FEA1C1CC0D111F4801FD0
:1008B0000BD141EA00014FF000004FF0004CB6E7C9
:1008C00011F4801F04BF01430020B4F1FD0C88BF68
:1008D000BCF5E06F3FF6AFAEB5EB030C04BFB6EB73
:1008E000020C5FEA500C50F1000041EB045170BD66
:1008F0000EF0004E4EEA113114EB5C04C2BFD4EB93
:100900000C0541EA045170BD41F480114FF0000E16
:10091000013C90E645EA060E8DE60CEA135594EA92
:100920000C0F08BF95EA0C0F3FF43BAF94EA0C0F95
:100930000AD150EA01347FF434AF95EA0C0F7FF40A
:1009400025AF104619462CE795EA0C0F06D152EA5E
:1009500003353FF4FDAE1046194622E750EA410642
:1009600018BF52EA43067FF4C5AE50EA41047FF453
:100970000DAF52EA43057FF4EBAE12E74A0011D205
:1009800012F5001211D20DD56FF47873B3EB6252E9
:100990000ED44FEAC12343F0004343EA505323FAF5
:1009A00002F070474FF00000704750EA013002D16A
:1009B0004FF0FF3070474FF00000704753B94AB90D
:1009C000002908BF00281CBF4FF0FF314FF0FF3057
:1009D00000F070B9ADF1080C6DE904CE00F006F836
:1009E000DDF804E0DDE9022304B070472DE9F047AB
:1009F000089E0D4604460F46002B4AD18A42944673
:100A000065D9B2FA82F343B102FA03FCC3F12002C2
:100A10009F4020FA02F217439C404FEA1C4E1FFAF7
:100A20008CF5B7FBFEF1220C0EFB117742EA074270
:100A300001FB05F090420AD91CEB020201F1FF37DD
:100A400080F01C81904240F2198102396244121AEE
:100A5000A4B2B2FBFEF00EFB102244EA024400FBFB
:100A600005F5A5420AD91CEB040400F1FF3280F021
:100A70000781A54240F204816444023840EA014003
:100A8000641B00211EB1DC400023C6E90043BDE821
:100A9000F0878B4208D9002E00F0ED800021C6E9D6
:100AA00000050846BDE8F087B3FA83F1002949D173
:100AB000AB4202D3824200F2F880841A65EB030253
:100AC00001201746002EE2D0C6E90047DFE702B951
:100AD000FFDEB2FA82F3002B40F090808A1A4FEAD0
:100AE0001C471FFA8CFE0121B2FBF7F507FB15200E
:100AF000220C42EA00420EFB05F0904208D91CEBA2
:100B0000020205F1FF3802D2904200F2CB80454646
:100B1000121AA4B2B2FBF7F007FB102244EA024417
:100B20000EFB00FEA64508D91CEB040400F1FF32C1
:100B300002D2A64500F2BB801046A4EB0E0440EAA8
:100B400005409FE7C1F120078B4022FA07FC4CEAE1
:100B5000030C05FA01F420FA07F3FD404FEA1C49A3
:100B60002343B5FBF9F81FFA8CFE09FB18551C0C42
:100B700044EA054408FB0EF5A54202FA01F200FA28
:100B800001F00BD91CEB040408F1FF3A80F08880D7
:100B9000A54240F28580A8F102086444641B9DB21E
:100BA000B4FBF9F309FB134445EA044403FB0EFECE
:100BB000A64508D91CEB040403F1FF356CD2A64509
:100BC0006AD9023B644443EA0843A3FB0295A4EBC1
:100BD0000E04AC42C846AE4656D353D056B1B0EB25
:100BE000080264EB0E0404FA07F7CA40CC4017432E
:100BF000C6E9007418460021BDE8F087C3F1200162
:100C000002FA03FC20FA01F225FA01F19D402A4381
:100C10004FEA1C471FFA8CFEB1FBF7F007FB1015DB
:100C2000110C41EA054100FB0EF58D4204FA03F474
:100C300008D91CEB010100F1FF382FD28D422DD9CC
:100C400002386144491B92B2B1FBF7F507FB15115D
:100C500042EA014205FB0EF1914208D91CEB020267
:100C600005F1FF3816D2914214D9023D6244521A5E
:100C700045EA004138E73146304608E73946E6E6BE
:100C80001046FBE64845A9D2B9EB020865EB0C0E0D
:100C9000013BA3E74546EAE72B4694E74046D1E708
:100CA000D0467BE7023D624432E708460AE76444E7
:100CB000023842E7704700BF80B500AF00F012F97C
:100CC000282003F098FE382000F00AF80F2000F0EA
:100CD00007F8012000F004F800F012F900BF80BD11
:100CE00080B582B000AF0346FB71FB790021184646
:100CF00000F012F800BF0837BD4680BD80B582B055
:100D000000AF0346FB71FB790121184600F004F89F
:100D100000BF0837BD4680BD80B582B000AF034636
:100D20000A46FB711346BB71BB791A46012108487C
:100D300001F04CFB00220221054801F047FBFB7942
:100D4000184600F007F800BF0837BD4680BD00BF59
:100D50000004024080B582B000AF0346FB71FB790E
:100D600003F00103DBB21A4680212B4801F02EFB71
:100D7000FB795B08DBB203F00103DBB21A461021FA
:100D8000264801F023FBFB799B08DBB203F001034B
:100D9000DBB21A462021214801F018FBFB79DB0861
:100DA000DBB203F00103DBB21A4640211B4801F01D
:100DB0000DFBFB791B09DBB203F00103DBB21A4622
:100DC0008021164801F002FBFB795B09DBB203F0DE
:100DD0000103DBB21A464FF48071104801F0F6FAB5
:100DE000FB799B09DBB203F00103DBB21A464FF437
:100DF00000710A4801F0EAFAFB79DB09DBB21A4616
:100E00004FF48061054801F0E1FA00F009F800BFF5
:100E10000837BD4680BD00BF00000240000402400C
:100E200080B500AF01220421064801F0CFFA02206C
:100E300003F0E1FD00220421024801F0C7FA00BFDF
:100E400080BD00BF0004024080B500AF00F04AF84A
:100E50000120FFF745FF022003F0CDFD00F050F820
:100E600000BF80BD80B584B000AF03460A46FB7169
:100E70001346BB71FB79002B02D0012B03D006E097
:100E8000BB79FB7306E0BB794033FB7302E0BB79AF
:100E9000FB7300BF00F026F8FB7B63F07F03DBB23F
:100EA0001846FFF71DFF00F02BF800BF1037BD46B6
:100EB00080BD80B582B000AF786000F013F806E026
:100EC0007B685A1C7A601B781846FFF717FF7B680F
:100ED0001B78002BF4D100F013F800BF0837BD4693
:100EE00080BD000080B500AF044B1B684FF0FF31A0
:100EF000184603F0ADFD00BF80BD00BF60030020B9
:100F000080B500AF034B1B68184603F0EFFD00BF30
:100F100080BD00BF6003002080B584B000AFF860E2
:100F20007A601A460B467B8113467B727B890122CD
:100F30001946F86801F04AFA012003F05CFD7B894C
:100F400000221946F86801F041FA7B681B68D968ED
:100F50007A7A7B681B680A43DA6000BF1037BD46A7
:100F600080BD000080B485B000AFF860B9607A60E1
:100F7000FB68074A1A60BB68064A1A607B688022D1
:100F80001A6000BF1437BD465DF8047B704700BF90
:100F90002C0000208000002080B500AF002201213D
:100FA000094801F013FA00220221074801F00EFA65
:100FB00000222021044801F009FA002240210248C1
:100FC00001F004FA00BF80BD0000024000000000F4
:100FD00080B582B000AF78607B681B68904A93420E
:100FE00040F088807B681B7F012B40F083808D4B15
:100FF0001B78002B1AD10021786802F057FA0346BB
:10100000894A1360874B01221A707B681B681A6A31
:101010007B681B6822F00A021A627B681B681A6AE6
:101020007B681B6842F002021A6263E07D4B1B780A
:10103000012B5FD10021786802F038FA03467B4A21
:1010400013607B681B6800225A62784B1A68764BE3
:101050001B689A4207D9754B1A68734B1B68D31AE1
:10106000734A13600FE0704B1A68704B1B689A420A
:1010700009D96E4B1A686C4B1B68D31A03F57F4372
:10108000FF336B4A13606A4B1B681846FFF7EAF997
:1010900061A3D3E90023FFF75FFA02460B4610462F
:1010A00019464FF000024FF08043FFF77FFB0246E6
:1010B0000B4610461946FFF761FC0346DAB25D4B5A
:1010C0001A70584B00221A707B681B681A6A7B687A
:1010D0001B6822F00A021A627B681A687B681B6828
:1010E000126A1A62544B1B68DA68534B1B6822F071
:1010F0000202DA607B681B68B3F1804F40F08880A1
:101100007B681B7F022B40F083804C4B1B78002BAD
:101110001AD10421786802F0C9F90346484A1360DD
:10112000464B01221A707B681B681A6A7B681B6831
:1011300022F0A0021A627B681B681A6A7B681B682F
:1011400042F020021A6263E03C4B1B78012B5FD116
:101150000421786802F0AAF903463A4A13607B68D2
:101160001B6800225A62374B1A68354B1B689A423B
:1011700007D9344B1A68324B1B68D31A324A1360B2
:101180000FE02F4B1A682F4B1B689A4209D92D4B41
:101190001A682B4B1B68D31A03F57F43FF332A4A87
:1011A0001360294B1B681846FFF75CF91AA3D3E9B3
:1011B0000023FFF7D1F902460B46104619464FF0BF
:1011C00000024FF08043FFF7F1FA02460B4610464B
:1011D0001946FFF7D3FB0346DAB21C4B1A70174BC4
:1011E00000221A707B681B681A6A7B681B6822F0F1
:1011F000A0021A627B681A687B681B68126A1A620E
:10120000134B1B68DA68124B1B6822F00402DA6089
:1012100000BF0837BD4680BD9CC420B07268A13FA6
:1012200000000140B8030020AC030020B003002000
:10123000B4030020B903002080020020C80300206E
:10124000BC030020C0030020C4030020C903002009
:10125000C802002080B582B000AF78607B681B6850
:101260000C4A934211D180210B4801F0C8F80B4B76
:101270001A780B4B1A70094B1B78184600F014F8BB
:1012800001220649074802F015FC00BF0837BD4699
:1012900080BD00BF0010014000000240D0030020CC
:1012A000CC0300201003002080B582B000AF0346BD
:1012B000FB71FB79423B102B00F2828001A252F8B5
:1012C00023F000BF3B130008C1130008C11300083E
:1012D000C113000809130008C1130008C113000856
:1012E000C1130008C1130008C11300086D130008E2
:1012F000C1130008C1130008C1130008C11300087E
:10130000C113000897130008324B1B78002B5AD1E9
:1013100001220121304801F059F8002202212E4813
:1013200001F054F8012220212B4801F04FF800224F
:101330004021294801F04AF845E0284B1B78002B52
:1013400043D100220121244801F040F8012202216A
:10135000214801F03BF8002220211F4801F036F817
:10136000012240211C4801F031F82EE00022012129
:10137000194801F02BF801220221174801F026F844
:1013800001222021144801F021F8002240211248B6
:1013900001F01CF81AE0012201210F4801F016F8B3
:1013A000002202210C4801F011F8002220210A48F5
:1013B00001F00CF801224021074801F007F805E090
:1013C000FFF7EAFD02E000BF00E000BF00BF083702
:1013D000BD4680BDD103002000000240D2030020A2
:1013E000B0B590B000AF00F0B7FC00F05DF800F0D1
:1013F0008DF900F0B9F800F00DF900F05DF9002169
:101400001F4801F0ADFD04211E4801F0A9FD012295
:101410001D491E4802F04EFB0023BB631C4BFB63BF
:1014200007F13803184603F0FAFA0346194A136025
:10143000194B07F11C041D460FCD0FC495E807009A
:1014400084E8070007F11C030021184603F087FA1F
:101450000346124A1360124B3C461D460FCD0FC483
:1014600095E8070084E807003B460021184603F092
:1014700076FA03460B4A136003F06AFAFEE700BFF0
:1014800080020020C8020020D003002010030020AA
:10149000640300206003002024710008580300202A
:1014A000507100085C03002080B594B000AF07F1D4
:1014B000200330220021184605F0E8FD07F10C0357
:1014C00000221A605A609A60DA601A610023BB60D9
:1014D000234B1B6C224A43F080531364204B1B6C3C
:1014E00003F08053BB60BB6800237B601D4B1B680F
:1014F00023F440431B4A43F400431360194B1B6819
:1015000003F440437B607B6802233B620123FB6260
:1015100010233B630023BB6307F12003184600F050
:1015200089FF0346002B01D000F012FA0F23FB6065
:1015300000233B6100237B614FF48053BB61002398
:10154000FB6107F10C030021184601F0EBF903469B
:10155000002B01D000F0FCF900BF5037BD4680BD24
:10156000003802400070004080B586B000AF07F13F
:10157000100300221A605A603B4600221A605A602B
:101580009A60DA60214B224A1A60204B0F225A607F
:101590001E4B00229A601D4B4FF6FE72DA601B4B09
:1015A00000221A61194B00225A61184B00229A61DD
:1015B000164801F085FC0346002B01D000F0C8F965
:1015C00000233B6100237B6107F1100319460F489C
:1015D00002F09EF90346002B01D000F0B9F9002378
:1015E0003B6001237B600023BB600023FB603B4624
:1015F00000221946054801F0BDFE0346002B01D02C
:1016000000F0A6F900BF1837BD4680BD800200205B
:101610000000014080B586B000AF07F11003002242
:101620001A605A603B4600221A605A609A60DA607B
:10163000204B4FF080421A601E4B0F225A601D4B08
:1016400000229A601B4B4FF6FE72DA60194B0022A3
:101650001A61184B00229A61164801F031FC0346CA
:10166000002B01D000F074F900233B6100237B6163
:1016700007F1100319460F4802F04AF90346002B00
:1016800001D000F065F900233B6001237B6000235B
:10169000BB600023FB603B4604221946054801F06D
:1016A00069FE0346002B01D000F052F900BF183745
:1016B000BD4680BDC802002080B500AF114B124A64
:1016C0001A60104B4FF416525A600E4B00229A606B
:1016D0000C4B0022DA600B4B00221A61094B0C22E2
:1016E0005A61084B00229A61064B0022DA610548D4
:1016F00002F090F90346002B01D000F029F900BF59
:1017000080BD00BF100300200010014080B588B0EC
:1017100000AF07F10C0300221A605A609A60DA6089
:101720001A610023BB60234B1B6B224A43F0010369
:101730001363204B1B6B03F00103BB60BB680023EA
:101740007B601C4B1B6B1B4A43F002031363194B5A
:101750001B6B03F002037B607B680022E3211648C9
:1017600000F034FE002249F2F771144800F02EFE1A
:10177000E323FB6001233B6100237B610023BB610A
:1017800007F10C0319460C4800F09CFC49F2F77372
:10179000FB6001233B6100237B610023BB6107F1F8
:1017A0000C031946054800F08DFC00BF2037BD46EC
:1017B00080BD00BF0038024000000240000402402B
:1017C00080B483B000AF7860FEE7000080B582B0DF
:1017D00000AF7860FFF770FA0223474A4FF4805158
:1017E0004648FFF799FB0423454A4FF4004143481C
:1017F000FFF792FB434B1B780E2B12D8424B1B7802
:10180000422B0ED1414B01221A70FFF7C5FBFFF7A7
:101810001BFB00210020FFF725FB3D48FFF749FB9C
:1018200064E03C4B1B780E2B12D8374B1B78462BB1
:101830000ED1394B01221A70FFF7AEFBFFF704FB04
:1018400000210020FFF70EFB3148FFF732FB4DE08F
:101850002C4B1B781D2B17D82B4B1B78422B13D1ED
:101860002A4B00221A702D4B01221A702C4B1B7828
:10187000012B01D1FFF7E8FA00210020FFF7F2FA6F
:101880002848FFF716FB31E0224B1B781D2B17D899
:101890001D4B1B78462B13D11F4B00221A70204B77
:1018A00001221A701D4B1B78012B01D1FFF7CCFAD6
:1018B00000210020FFF7D6FA1B48FFF7FAFA15E0DF
:1018C000154B00221A70114B00221A70134B002284
:1018D0001A70134B00221A70104B1B78012B05D085
:1018E0000F4B1B78012B01D0FFF7AEFA4FF4967027
:1018F00003F081F870E700BF80020020000402407E
:10190000C8020020C9030020CC030020D20300201D
:101910006C710008B9030020D1030020CB03002024
:10192000CA030020787100088871000880B582B071
:1019300000AF78607B681B68044A934201D100F0D5
:101940002DFA00BF0837BD4680BD00BF000400402F
:1019500080B400AF72B600BFFEE7000080B582B071
:1019600000AF00237B60124B5B6C114A43F4804351
:1019700053640F4B5B6C03F480437B607B680023F4
:101980003B600B4B1B6C0A4A43F080531364084BBB
:101990001B6C03F080533B603B6800220F216FF00B
:1019A000010000F0D3FA00BF0837BD4680BD00BF7C
:1019B0000038024080B58CB000AF786007F11C039E
:1019C00000221A605A609A60DA601A617B681B68AC
:1019D0003A4A934235D10023BB61394B5B6C384A9C
:1019E00043F001035364364B5B6C03F00103BB61AE
:1019F000BB6900237B61324B1B6B314A43F001030F
:101A000013632F4B1B6B03F001037B617B694FF466
:101A10008073FB6102233B6200237B620023BB6275
:101A20000123FB6207F11C031946264800F04AFB1C
:101A3000002205211B2000F089FA1B2000F0A2FAE9
:101A400038E07B681B68B3F1804F33D100233B61E2
:101A50001B4B1B6C1A4A43F001031364184B1B6C9D
:101A600003F001033B613B690023FB60144B1B6BDC
:101A7000134A43F002031363114B1B6B03F0020381
:101A8000FB60FB680823FB6102233B6200237B624F
:101A90000023BB620123FB6207F11C0319460A48BD
:101AA00000F010FB002205211C2000F04FFA1C2042
:101AB00000F068FA00BF3037BD4680BD000001402D
:101AC00000380240000002400004024080B58AB0A5
:101AD00000AF786007F1140300221A605A609A6020
:101AE000DA601A617B681B681D4A934234D1002377
:101AF0003B611C4B5B6C1B4A43F010035364194B56
:101B00005B6C03F010033B613B690023FB60154BEA
:101B10001B6B144A43F001031363124B1B6B03F05E
:101B20000103FB60FB684FF4C0637B610223BB6170
:101B30000023FB6103233B6207237B6207F114034D
:101B40001946094800F0BEFA00220521252000F0C0
:101B5000FDF9252000F016FA00BF2837BD4680BDEC
:101B600000100140003802400000024080B58EB0F5
:101B700000AF78600023FB620023BB620023FB60A0
:101B8000334B1B6C324A43F002031364304B1B6C23
:101B900003F00203FB60FB6807F1100207F1140376
:101BA0001146184601F09EF83B6AFB62FB6A002B67
:101BB00003D101F06FF8786304E001F06BF803469D
:101BC0005B007B637B6B234AA2FB03239B0C013BE3
:101BD000BB62214B214A1A601F4B40F2E732DA60A8
:101BE0001D4ABB6A53601C4B00221A611A4B00222B
:101BF0009A60194B00229A61174801F0A5F8034634
:101C000087F8333097F83330002B1BD1124801F09E
:101C1000F5F8034687F8333097F83330002B11D1AD
:101C20001D2000F0AFF97B680F2B08D800227968DF
:101C30001D2000F08BF90A4A7B68136002E0012343
:101C400087F8333097F8333018463837BD4680BDB3
:101C50000038024083DE1B43D40300200004004010
:101C60000400002080B400AFFEE780B400AFFEE7C0
:101C700080B400AFFEE780B400AFFEE780B400AFF1
:101C8000FEE780B400AF00BFBD465DF8047B70473F
:101C900080B500AF024801F07DFA00BF80BD00BFF3
:101CA0008002002080B500AF024801F073FA00BF47
:101CB00080BD00BFC802002080B500AF024801F01F
:101CC00069FA00BF80BD00BFD403002080B500AF1B
:101CD000024801F015FF00BF80BD00BF10030020C7
:101CE00080B400AF064BD3F88830054A43F4700344
:101CF000C2F8883000BFBD465DF8047B704700BF66
:101D000000ED00E0DFF834D0FFF7EAFF0C480D49A2
:101D10000D4A002302E0D458C4500433C4188C4246
:101D2000F9D30A4A0A4C002301E013600432A242AC
:101D3000FBD305F0B3F9FFF753FB70470000012018
:101D40000000002010000020C871000810000020D2
:101D500074410020FEE7000080B500AF0E4B1B6809
:101D60000D4A43F4007313600B4B1B680A4A43F49B
:101D700080631360084B1B68074A43F48073136049
:101D8000032000F0D8F80F20FFF7F0FEFFF7E6FD84
:101D90000023184680BD00BF003C024080B400AF65
:101DA000064B1B781A46064B1B681344044A136003
:101DB00000BFBD465DF8047B704700BF08000020EF
:101DC0001C04002080B400AF034B1B681846BD46BE
:101DD0005DF8047B704700BF1C04002080B485B010
:101DE00000AF78607B6803F00703FB600C4BDB6897
:101DF000BB60BA684FF6FF031340BB60FB681A0272
:101E0000BB68134343F0BF6343F40033BB60044A31
:101E1000BB68D36000BF1437BD465DF8047B7047D4
:101E200000ED00E080B400AF044BDB681B0A03F058
:101E300007031846BD465DF8047B704700ED00E0DF
:101E400080B483B000AF0346FB7197F90730002BD5
:101E50000BDBFB7903F01F02074997F907305B0999
:101E6000012000FA02F241F8232000BF0C37BD46E2
:101E70005DF8047B704700BF00E100E080B483B0F0
:101E800000AF03463960FB7197F90730002B0ADB7E
:101E90003B68DAB20C4997F907301201D2B20B4411
:101EA00083F800230AE03B68DAB20849FB7903F0C3
:101EB0000F03043B1201D2B20B441A7600BF0C3759
:101EC000BD465DF8047B704700E100E000ED00E0F6
:101ED00080B489B000AFF860B9607A60FB6803F045
:101EE0000703FB61FB69C3F10703042B28BF04232D
:101EF000BB61FB690433062B02D9FB69033B00E09D
:101F000000237B614FF0FF32BB6902FA03F3DA432F
:101F1000BB681A407B699A404FF0FF317B6901FA38
:101F200003F3D9437B680B40134318462437BD465F
:101F30005DF8047B704780B582B000AF7860786848
:101F4000FFF74CFF00BF0837BD4680BD80B586B0A7
:101F500000AF0346B9607A60FB7300237B61FFF733
:101F600061FF78617A68B9687869FFF7B1FF024666
:101F700097F90F3011461846FFF780FF00BF18375A
:101F8000BD4680BD80B582B000AF0346FB7197F9B6
:101F900007301846FFF754FF00BF0837BD4680BD25
:101FA00080B584B000AF78607B689B6DFB60FFF705
:101FB00009FFB8607B6893F83530DBB2022B08D09C
:101FC0007B6880225A657B68002283F834200123D5
:101FD00052E07B681B681A687B681B6822F0160257
:101FE0001A607B681B685A697B681B6822F0800254
:101FF0005A617B681B6C002B03D17B689B6C002BA8
:1020000007D07B681B681A687B681B6822F008028F
:102010001A607B681B681A687B681B6822F00102E3
:102020001A6013E0FFF7CEFE0246BB68D31A052BF9
:102030000CD97B6820225A657B68032283F83520FF
:102040007B68002283F83420032315E07B681B683B
:102050001B6803F00103002BE4D17B68DB6D3F229A
:102060009A40FB689A607B68012283F835207B6880
:10207000002283F83420002318461037BD4680BD67
:1020800080B483B000AF78607B6893F83530DBB202
:10209000022B04D07B6880225A6501230CE07B6808
:1020A000052283F835207B681B681A687B681B68EB
:1020B00022F001021A60002318460C37BD465DF875
:1020C000047B704780B489B000AF7860396000232A
:1020D0007B6100233B610023BB610023FB6159E16D
:1020E0000122FB6902FA03F37B613B681B687A6992
:1020F00013403B613A697B699A4240F048813B68F2
:102100005B6803F00303012B05D03B685B6803F0B9
:102110000303022B30D17B689B68BB61FB695B00CA
:10212000032202FA03F3DB43BA691340BB613B6845
:10213000DA68FB695B0002FA03F3BA691343BB6117
:102140007B68BA699A607B685B68BB610122FB6946
:1021500002FA03F3DB43BA691340BB613B685B6877
:102160001B0903F00102FB6902FA03F3BA69134386
:10217000BB617B68BA695A603B685B6803F0030324
:10218000032B17D07B68DB68BB61FB695B00032214
:1021900002FA03F3DB43BA691340BB613B689A68F8
:1021A000FB695B0002FA03F3BA691343BB617B6806
:1021B000BA69DA603B685B6803F00303022B23D142
:1021C000FB69DA087B68083253F82230BB61FB698F
:1021D00003F007039B000F2202FA03F3DB43BA6903
:1021E0001340BB613B681A69FB6903F007039B005E
:1021F00002FA03F3BA691343BB61FB69DA087B682F
:102200000832B96943F822107B681B68BB61FB691F
:102210005B00032202FA03F3DB43BA691340BB619C
:102220003B685B6803F00302FB695B0002FA03F39F
:10223000BA691343BB617B68BA691A603B685B6823
:1022400003F44033002B00F0A2800023FB60574BC7
:102250005B6C564A43F480435364544B5B6C03F409
:102260008043FB60FB68524AFB699B08023352F8CB
:102270002330BB61FB6903F003039B000F2202FACA
:1022800003F3DB43BA691340BB617B68494A93425D
:1022900019D07B68484A934213D07B68474A9342DF
:1022A0000DD07B68464A934207D07B68454A9342EB
:1022B00001D1042308E0072306E0032304E00223FE
:1022C00002E0012300E00023FA6902F00302920019
:1022D0009340BA691343BB613549FB699B080233DC
:1022E000BA6941F82320384B9B68BB613B69DB43EB
:1022F000BA691340BB613B685B6803F48013002B31
:1023000003D0BA693B691343BB612F4ABB69936031
:102310002D4BDB68BB613B69DB43BA691340BB6192
:102320003B685B6803F40013002B03D0BA693B6978
:102330001343BB61244ABB69D360234B5B68BB6119
:102340003B69DB43BA691340BB613B685B6803F4DC
:102350000033002B03D0BA693B691343BB611A4AAF
:10236000BB695360184B1B68BB613B69DB43BA69AF
:102370001340BB613B685B6803F48033002B03D0E0
:10238000BA693B691343BB610F4ABB691360FB69C0
:102390000133FB61FB690F2B7FF6A2AE00BF00BFCC
:1023A0002437BD465DF8047B704700BF003802400B
:1023B00000380140000002400004024000080240D2
:1023C000000C024000100240003C014080B483B089
:1023D00000AF78600B467B8013467B707B78002BC8
:1023E00003D07A887B689A6103E07B881A047B6853
:1023F0009A6100BF0C37BD465DF8047B704780B41E
:1024000085B000AF78600B467B807B685B69FB60C2
:102410007A88FB6813401A04FB68D9437B880B4019
:102420001A437B689A6100BF1437BD465DF8047B90
:102430007047000080B586B000AF78607B68002BE5
:1024400001D1012367E27B681B6803F00103002BC5
:1024500075D0884B9B6803F00C03042B0CD0854B84
:102460009B6803F00C03082B12D1824B5B6803F4CA
:102470008003B3F5800F0BD17E4B1B6803F4003350
:10248000002B5BD07B685B68002B57D1012342E2B5
:102490007B685B68B3F5803F06D1764B1B68754A55
:1024A00043F4803313601DE07B685B68B3F5A02FB5
:1024B0000CD1704B1B686F4A43F4802313606D4B43
:1024C0001B686C4A43F4803313600BE0694B1B6854
:1024D000684A23F480331360664B1B68654A23F413
:1024E000802313607B685B68002B13D0FFF76AFCC6
:1024F000386108E0FFF766FC02463B69D31A642B9B
:1025000001D9032307E25B4B1B6803F40033002B64
:10251000F0D014E0FFF756FC386108E0FFF752FCFA
:1025200002463B69D31A642B01D90323F3E1514BD3
:102530001B6803F40033002BF0D100E000BF7B6880
:102540001B6803F00203002B63D04A4B9B6803F027
:102550000C03002B0BD0474B9B6803F00C03082B9C
:102560001CD1444B5B6803F48003002B16D1414B14
:102570001B6803F00203002B05D07B68DB68012B8E
:1025800001D00123C7E13B4B1B6823F0F8027B68B5
:102590001B69DB00374913430B603AE07B68DB685B
:1025A000002B20D0344B01221A60FFF70BFC38615E
:1025B00008E0FFF707FC02463B69D31A022B01D95A
:1025C0000323A8E12B4B1B6803F00203002BF0D080
:1025D000284B1B6823F0F8027B681B69DB00254948
:1025E00013430B6015E0244B00221A60FFF7EAFB4F
:1025F000386108E0FFF7E6FB02463B69D31A022B7D
:1026000001D9032387E11B4B1B6803F00203002B56
:10261000F0D17B681B6803F00803002B36D07B6881
:102620005B69002B16D0154B01221A60FFF7CAFB1D
:10263000386108E0FFF7C6FB02463B69D31A022B5C
:1026400001D9032367E10B4B5B6F03F00203002BFF
:10265000F0D01BE0094B00221A60FFF7B3FB386192
:102660000EE0FFF7AFFB02463B69D31A022B07D9F6
:10267000032350E10038024000004742800E4742E9
:10268000884B5B6F03F00203002BEAD17B681B6869
:1026900003F00403002B00F097800023FB75814BAF
:1026A0001B6C03F08053002B0FD10023BB607D4BCC
:1026B0001B6C7C4A43F0805313647A4B1B6C03F011
:1026C0008053BB60BB680123FB75774B1B6803F429
:1026D0008073002B18D1744B1B68734A43F48073CA
:1026E0001360FFF76FFB386108E0FFF76BFB0246F2
:1026F0003B69D31A022B01D903230CE16A4B1B68F7
:1027000003F48073002BF0D07B689B68012B06D10B
:10271000644B1B6F634A43F0010313671CE07B6843
:102720009B68052B0CD15F4B1B6F5E4A43F0040383
:1027300013675C4B1B6F5B4A43F0010313670BE0AD
:10274000584B1B6F574A23F001031367554B1B6F00
:10275000544A23F0040313677B689B68002B15D051
:10276000FFF730FB38610AE0FFF72CFB02463B69BC
:10277000D31A41F28832934201D90323CBE0494B6B
:102780001B6F03F00203002BEED014E0FFF71AFBDF
:1027900038610AE0FFF716FB02463B69D31A41F2A3
:1027A0008832934201D90323B5E03E4B1B6F03F0FF
:1027B0000203002BEED1FB7D012B05D1394B1B6CA5
:1027C000384A23F0805313647B689B69002B00F028
:1027D000A180344B9B6803F00C03082B5CD07B6812
:1027E0009B69022B41D1314B00221A60FFF7EAFAB4
:1027F000386108E0FFF7E6FA02463B69D31A022B7C
:1028000001D9032387E0274B1B6803F00073002BDB
:10281000F0D17B68DA697B681B6A1A437B685B6A64
:102820009B011A437B689B6A5B08013B1B041A43AC
:102830007B68DB6A1B061B4913434B601B4B012261
:102840001A60FFF7BFFA386108E0FFF7BBFA0246EB
:102850003B69D31A022B01D903235CE0114B1B689F
:1028600003F00073002BF0D054E0104B00221A60EC
:10287000FFF7A8FA386108E0FFF7A4FA02463B69BF
:10288000D31A022B01D9032345E0064B1B6803F042
:102890000073002BF0D13DE07B689B69012B07D1D1
:1028A000012338E0003802400070004060004742D9
:1028B0001B4B5B68FB607B689B69012B28D0FB6826
:1028C00003F480027B68DB699A4221D1FB6803F044
:1028D0003F027B681B6A9A421AD1FA6847F6C073B6
:1028E00013407A68526A9201934211D1FB6803F453
:1028F00040327B689B6A5B08013B1B049A4207D10C
:10290000FB6803F070627B68DB6A1B069A4201D0A9
:10291000012300E0002318461837BD4680BD00BFE4
:102920000038024080B584B000AF786039607B68C1
:10293000002B01D10123CCE0684B1B6803F0070397
:102940003A689A420CD9654B3A68D2B21A70634B16
:102950001B6803F007033A689A4201D00123B8E0EC
:102960007B681B6803F00203002B20D07B681B6888
:1029700003F00403002B05D0594B9B68584A43F4DD
:10298000E05393607B681B6803F00803002B05D0BD
:10299000534B9B68524A43F460439360504B9B688F
:1029A00023F0F0027B689B684D4913438B607B6882
:1029B0001B6803F00103002B44D07B685B68012B8C
:1029C00007D1474B1B6803F40033002B19D10123B7
:1029D0007FE07B685B68022B03D07B685B68032B1E
:1029E00007D13F4B1B6803F00073002B09D1012373
:1029F0006FE03B4B1B6803F00203002B01D1012366
:102A000067E0374B9B6823F003027B685B683449BF
:102A100013438B60FFF7D6F9F8600AE0FFF7D2F9AD
:102A20000246FB68D31A41F28832934201D903234C
:102A30004FE02B4B9B6803F00C027B685B689B00AC
:102A40009A42EBD1254B1B6803F007033A689A4280
:102A50000CD2224B3A68D2B21A70204B1B6803F09A
:102A600007033A689A4201D0012332E07B681B6871
:102A700003F00403002B08D0194B9B6823F4E052A9
:102A80007B68DB68164913438B607B681B6803F027
:102A90000803002B09D0124B9B6823F460427B682B
:102AA0001B69DB000E4913438B6000F021F80246DE
:102AB0000B4B9B681B0903F00F030A49CB5C22FAFE
:102AC00003F3094A1360094B1B681846FFF74EF8D9
:102AD000002318461037BD4680BD00BF003C0240B1
:102AE00000380240A071000800000020040000200F
:102AF0002DE9B04F90B000AF00237B630023FB6350
:102B000000233B630023BB63594B9B6803F00C031A
:102B1000082B0DD0082B00F2A180002B02D0042B33
:102B200003D09BE0534BBB639BE0534BBB6398E0EC
:102B30004F4B5B6803F03F037B634D4B5B6803F4D3
:102B40008003002B28D04A4B5B689B0900223B6224
:102B50007A623B6AC3F308000021474B03FB01F292
:102B6000002300FB03F31344434AA0FB0212FA6262
:102B70000A46BA62FA6A1344FB627B6B0022BB61AD
:102B8000FA61D7E90623D7E90A01FDF717FF0246E4
:102B90000B461346FB6353E0354B5B689B090022F1
:102BA0003B617A613B69C3F3080A4FF0000B524660
:102BB0005B464FF000004FF00001590141EAD2613D
:102BC000500102460B46B2EB0A0863EB0B094FF0CB
:102BD00000024FF000034FEA891343EA98634FEA7B
:102BE0008812B2EB080463EB09054FF000024FF0C6
:102BF0000003EB0043EA5473E20014461D4614EB55
:102C00000A033B6045EB0B037B604FF000024FF083
:102C10000003D7E9004529468B02214643EA915338
:102C200021468A02104619467B6B0022BB60FA607F
:102C3000D7E90223FDF7C2FE02460B461346FB63AB
:102C40000B4B5B681B0C03F0030301335B003B631E
:102C5000FA6B3B6BB2FBF3F3BB6302E0054BBB6368
:102C600000BFBB6B18464037BD46BDE8B08F00BF04
:102C7000003802400024F40040787D0180B400AFA9
:102C8000034B1B681846BD465DF8047B704700BFC8
:102C90000000002080B500AFFFF7F0FF0246054BB3
:102CA0009B689B0A03F007030349CB5C22FA03F3FA
:102CB000184680BD00380240B071000880B500AFF2
:102CC000FFF7DCFF0246054B9B685B0B03F0070335
:102CD0000349CB5C22FA03F3184680BD003802405A
:102CE000B071000880B483B000AF786039607B6851
:102CF0000F221A60124B9B6803F003027B685A6034
:102D00000F4B9B6803F0F0027B689A600C4B9B684A
:102D100003F4E0527B68DA60094B9B68DB0803F43C
:102D2000E0527B681A61074B1B6803F007023B689F
:102D30001A6000BF0C37BD465DF8047B704700BFCA
:102D400000380240003C024080B582B000AF78609D
:102D50007B68002B01D1012341E07B6893F83D3073
:102D6000DBB2002B06D17B68002283F83C20786818
:102D700000F039F87B68022283F83D207B681A68EE
:102D80007B6804331946104600F0F2FB7B68012291
:102D900083F846207B68012283F83E207B6801226D
:102DA00083F83F207B68012283F840207B68012262
:102DB00083F841207B68012283F842207B6801224E
:102DC00083F843207B68012283F844207B6801223A
:102DD00083F845207B68012283F83D2000231846B4
:102DE0000837BD4680BD80B483B000AF786000BFB7
:102DF0000C37BD465DF8047B7047000080B485B099
:102E000000AF78607B6893F83D30DBB2012B01D0D6
:102E1000012344E07B68022283F83D207B681B6825
:102E2000DA687B681B6842F00102DA607B681B6825
:102E30001E4A934218D07B681B68B3F1804F13D0B1
:102E40007B681B681A4A93420ED07B681B68194A3C
:102E5000934209D07B681B68174A934204D07B6871
:102E60001B68164A934211D17B681B689B6803F06C
:102E70000703FB60FB68062B10D07B681B681A6891
:102E80007B681B6842F001021A6007E07B681B68E0
:102E90001A687B681B6842F001021A60002318461A
:102EA0001437BD465DF8047B704700BF0000014049
:102EB0000004004000080040000C004000400140B9
:102EC00080B582B000AF78607B68002B01D1012310
:102ED00041E07B6893F83D30DBB2002B06D17B6884
:102EE000002283F83C207868FEF764FD7B680222AC
:102EF00083F83D207B681A687B68043319461046C6
:102F000000F036FB7B68012283F846207B680122B3
:102F100083F83E207B68012283F83F207B680122F2
:102F200083F840207B68012283F841207B680122DE
:102F300083F842207B68012283F843207B680122CA
:102F400083F844207B68012283F845207B680122B6
:102F500083F83D20002318460837BD4680BD000099
:102F600080B584B000AF786039600023FB733B68A4
:102F7000002B04D17B6893F83E30DBB213E03B6852
:102F8000042B04D17B6893F83F30DBB20BE03B6845
:102F9000082B04D17B6893F84030DBB203E07B68F8
:102FA00093F84130DBB2BB733B68002B04D17B68E4
:102FB00093F84230DBB213E03B68042B04D17B680A
:102FC00093F84330DBB20BE03B68082B04D17B68FD
:102FD00093F84430DBB203E07B6893F84530DBB212
:102FE0007B73BB7B012B02D17B7B012B01D00123A7
:102FF000C2E03B68002B04D17B68022283F83E20AC
:1030000013E03B68042B04D17B68022283F83F2045
:103010000BE03B68082B04D17B68022283F8402038
:1030200003E07B68022283F841203B68002B04D137
:103030007B68022283F8422013E03B68042B04D112
:103040007B68022283F843200BE03B68082B04D105
:103050007B68022283F8442003E07B68022283F825
:1030600045203B680C2B41D801A252F823F000BF49
:10307000A5300008ED300008ED300008ED30000804
:10308000B7300008ED300008ED300008ED300008E2
:10309000C9300008ED300008ED300008ED300008C0
:1030A000DB3000087B681B68DA687B681B6842F0CD
:1030B0000202DA601DE07B681B68DA687B681B68C7
:1030C00042F00402DA6014E07B681B68DA687B680F
:1030D0001B6842F00802DA600BE07B681B68DA6864
:1030E0007B681B6842F01002DA6002E00123FB7388
:1030F00000BFFB7B002B3ED17B681B680122396837
:10310000184600F0DFFB7B681B681D4A934218D00D
:103110007B681B68B3F1804F13D07B681B68194A2A
:1031200093420ED07B681B68174A934209D07B6894
:103130001B68164A934204D07B681B68144A93426A
:1031400011D17B681B689B6803F00703BB60BB68F9
:10315000062B10D07B681B681A687B681B6842F0DE
:1031600001021A6007E07B681B681A687B681B68AD
:1031700042F001021A60FB7B18461037BD4680BD45
:10318000000001400004004000080040000C004026
:103190000040014080B584B000AF78607B681B6858
:1031A000DB68FB607B681B681B69BB60BB6803F066
:1031B0000203002B20D0FB6803F00203002B1BD07E
:1031C0007B681B686FF002021A617B6801221A7724
:1031D0007B681B689B6903F00303002B03D07868AE
:1031E000FDF7F6FE05E0786800F0A4F9786800F0D5
:1031F000ABF97B6800221A77BB6803F00403002B4D
:1032000020D0FB6803F00403002B1BD07B681B68F5
:103210006FF004021A617B6802221A777B681B68D0
:103220009B6903F44073002B03D07868FDF7D0FE50
:1032300005E0786800F07EF9786800F085F97B6831
:1032400000221A77BB6803F00803002B20D0FB682C
:1032500003F00803002B1BD07B681B686FF008028B
:103260001A617B6804221A777B681B68DB6903F0AC
:103270000303002B03D07868FDF7AAFE05E0786809
:1032800000F058F9786800F05FF97B6800221A773F
:10329000BB6803F01003002B20D0FB6803F0100381
:1032A000002B1BD07B681B686FF010021A617B68D3
:1032B00008221A777B681B68DB6903F44073002BD4
:1032C00003D07868FDF784FE05E0786800F032F9F5
:1032D000786800F039F97B6800221A77BB6803F040
:1032E0000103002B0CD0FB6803F00103002B07D077
:1032F0007B681B686FF001021A617868FEF716FBA5
:10330000BB6803F08003002B0CD0FB6803F0800344
:10331000002B07D07B681B686FF080021A61786809
:1033200000F06EFBBB6803F04003002B0CD0FB6881
:1033300003F04003002B07D07B681B686FF040024E
:103340001A61786800F00AF9BB6803F02003002BCB
:103350000CD0FB6803F02003002B07D07B681B68B0
:103360006FF020021A61786800F040FB00BF103750
:10337000BD4680BD80B586B000AFF860B9607A60A8
:103380000023FB75FB6893F83C30012B01D102232D
:1033900088E0FB68012283F83C207B68002B1BD16E
:1033A000FB681868BB681968BB685A68BB68DB684B
:1033B00000F06AF9FB681B689A69FB681B6822F0D9
:1033C0000C029A61FB681B689969BB689A68FB6884
:1033D0001B680A439A6160E07B68042B1CD1FB6880
:1033E0001868BB681968BB685A68BB68DB6800F07E
:1033F000B3F9FB681B689A69FB681B6822F440629A
:103400009A61FB681B689969BB689B681A02FB6834
:103410001B680A439A6140E07B68082B1BD1FB685C
:103420001868BB681968BB685A68BB68DB6800F03D
:10343000D0F9FB681B68DA69FB681B6822F00C0294
:10344000DA61FB681B68D969BB689A68FB681B680E
:103450000A43DA6121E07B680C2B1CD1FB681868F9
:10346000BB681968BB685A68BB68DB6800F0EDF997
:10347000FB681B68DA69FB681B6822F44062DA614A
:10348000FB681B68D969BB689B681A02FB681B68EC
:103490000A43DA6101E00123FB75FB68002283F82F
:1034A0003C20FB7D18461837BD4680BD80B485B0F2
:1034B00000AF786039600023FB603B680C2B31D88B
:1034C00001A252F823F000BFFD34000825350008A2
:1034D0002535000825350008073500082535000882
:1034E0002535000825350008113500082535000868
:1034F00025350008253500081B3500087B681B684A
:103500005B6BFB600FE07B681B689B6BFB600AE0FA
:103510007B681B68DB6BFB6005E07B681B681B6CD2
:10352000FB6000E000BFFB6818461437BD465DF83D
:10353000047B704780B483B000AF786000BF0C3765
:10354000BD465DF8047B704780B483B000AF7860FF
:1035500000BF0C37BD465DF8047B704780B483B074
:1035600000AF786000BF0C37BD465DF8047B704744
:1035700080B485B000AF786039607B681B68FB6001
:103580007B683A4A93420FD07B68B3F1804F0BD0EF
:103590007B68374A934207D07B68364A934203D010
:1035A0007B68354A934208D1FB6823F07003FB60C7
:1035B0003B685B68FA681343FB607B682B4A934265
:1035C0001BD07B68B3F1804F17D07B68284A9342A9
:1035D00013D07B68274A93420FD07B68264A9342D8
:1035E0000BD07B68254A934207D07B68244A9342DC
:1035F00003D07B68234A934208D1FB6823F44073CD
:10360000FB603B68DB68FA681343FB60FB6823F0F0
:1036100080023B685B691343FB607B68FA681A6051
:103620003B689A687B68DA623B681A687B689A62D2
:103630007B680E4A934203D13B681A697B681A6320
:103640007B6801225A617B681B6903F00103012B2F
:1036500005D17B681B6923F001027B681A6100BFFA
:103660001437BD465DF8047B704700BF0000014081
:103670000004004000080040000C004000400140F1
:10368000004401400048014080B487B000AFF860BA
:10369000B9607A603B60FB681B6A3B61FB681B6A30
:1036A00023F00102FB681A62FB689B697B61FB687F
:1036B000244A934213D0FB68B3F1804F0FD0FB68CC
:1036C000214A93420BD0FB68204A934207D0FB6803
:1036D0001F4A934203D0FB681E4A934201D1012343
:1036E00000E00023002B08D07B6923F003037B61FB
:1036F0007A697B6813437B6103E07B6943F00103D4
:103700007B617B6923F0F0037B613B681B01DBB2CB
:103710007A6913437B613B6923F00A033B61BB6811
:1037200003F00A033A6913433B61FB687A699A61C3
:10373000FB683A691A6200BF1C37BD465DF8047B1E
:10374000704700BF00000140000400400008004036
:10375000000C00400040014080B487B000AFF8602A
:10376000B9607A603B60FB681B6A7B61FB681B6A1F
:1037700023F01002FB681A62FB689B693B613B699E
:1037800023F440733B617B681B023A6913433B613E
:103790003B6923F470433B613B681B039BB23A696E
:1037A00013433B617B6923F0A0037B61BB681B0172
:1037B00003F0A0037A6913437B61FB683A699A615D
:1037C000FB687A691A6200BF1C37BD465DF8047B4E
:1037D000704780B487B000AFF860B9607A603B6032
:1037E000FB681B6A7B61FB681B6A23F48072FB68C1
:1037F0001A62FB68DB693B613B6923F003033B61B1
:103800003A697B6813433B613B6923F0F0033B61FA
:103810003B681B01DBB23A6913433B617B6923F4CC
:1038200020637B61BB681B0203F420637A69134346
:103830007B61FB683A69DA61FB687A691A6200BFEA
:103840001C37BD465DF8047B704780B487B000AF7D
:10385000F860B9607A603B60FB681B6A7B61FB685B
:103860001B6A23F48052FB681A62FB68DB693B61C8
:103870003B6923F440733B617B681B023A69134345
:103880003B613B6923F470433B613B681B039BB284
:103890003A6913433B617B6923F420437B61BB6836
:1038A0001B0303F420437A6913437B61FB683A6985
:1038B000DA61FB687A691A6200BF1C37BD465DF8A1
:1038C000047B704780B487B000AFF860B9607A605D
:1038D000BB6803F01F03012202FA03F37B61FB685C
:1038E0001A6A7B69DB431A40FB681A62FB681A6A32
:1038F000BB6803F01F03796801FA03F31A43FB68FE
:103900001A6200BF1C37BD465DF8047B704700009B
:1039100080B485B000AF786039607B6893F83C3044
:10392000012B01D1022350E07B68012283F83C2067
:103930007B68022283F83D207B681B685B68FB6024
:103940007B681B689B68BB60FB6823F07003FB60AF
:103950003B681B68FA681343FB607B681B68FA6866
:103960005A607B681B681C4A934218D07B681B68AE
:10397000B3F1804F13D07B681B68184A93420ED076
:103980007B681B68164A934209D07B681B68154AFE
:10399000934204D07B681B68134A93420CD1BB68E6
:1039A00023F08003BB603B685B68BA681343BB606D
:1039B0007B681B68BA689A607B68012283F83D20A7
:1039C0007B68002283F83C20002318461437BD464C
:1039D0005DF8047B704700BF000001400004004018
:1039E00000080040000C00400040014080B483B05B
:1039F00000AF786000BF0C37BD465DF8047B7047B0
:103A000080B483B000AF786000BF0C37BD465DF86E
:103A1000047B704780B582B000AF78607B68002B74
:103A200001D1012342E07B6893F84130DBB2002BE7
:103A300006D17B68002283F840207868FEF746F8BC
:103A40007B68242283F841207B681B68DA687B68E6
:103A50001B6822F40052DA60786800F0DBFC7B68B7
:103A60001B681A697B681B6822F490421A617B68A4
:103A70001B685A697B681B6822F02A025A617B68BE
:103A80001B68DA687B681B6842F40052DA607B6866
:103A900000225A647B68202283F841207B68202220
:103AA00083F842207B6800225A63002318460837B7
:103AB000BD4680BD80B584B000AFF860B9601346E4
:103AC000FB80FB6893F84230DBB2202B12D1BB683D
:103AD000002B02D0FB88002B01D101230BE0FB68F7
:103AE00000221A63FB881A46B968F86800F0BAFA2F
:103AF000034600E0022318461037BD4680BD000093
:103B000080B5BAB000AF78607B681B681B68C7F8E7
:103B1000E4307B681B68DB68C7F8E0307B681B68B3
:103B20005B69C7F8DC300023C7F8D8300023C7F83A
:103B3000D430D7F8E43003F00F03C7F8D830D7F803
:103B4000D830002B0FD1D7F8E43003F02003002B3E
:103B500009D0D7F8E03003F02003002B03D07868B9
:103B600000F099FB5BE2D7F8D830002B00F0DE8044
:103B7000D7F8DC3003F00103002B06D1D7F8E03092
:103B800003F49073002B00F0D180D7F8E43003F0F9
:103B90000103002B0BD0D7F8E03003F48073002B27
:103BA00005D07B685B6C43F001027B685A64D7F8F0
:103BB000E43003F00403002B0BD0D7F8DC3003F023
:103BC0000103002B05D07B685B6C43F002027B682D
:103BD0005A64D7F8E43003F00203002B0BD0D7F877
:103BE000DC3003F00103002B05D07B685B6C43F0F5
:103BF00004027B685A64D7F8E43003F00803002B12
:103C000011D0D7F8E03003F02003002B05D1D7F80E
:103C1000DC3003F00103002B05D07B685B6C43F0C4
:103C200008027B685A647B685B6C002B00F0F281B1
:103C3000D7F8E43003F02003002B08D0D7F8E030A9
:103C400003F02003002B02D0786800F024FB7B688F
:103C50001B685B6903F04003402B0CBF012300236A
:103C6000DBB2C7F8D4307B685B6C03F00803002B31
:103C700003D1D7F8D430002B4FD0786800F02CFA5D
:103C80007B681B685B6903F04003402B41D17B6874
:103C90001B681433C7F89C30D7F89C3053E8003FBA
:103CA000C7F89830D7F8983023F04003C7F8D030E1
:103CB0007B681B681433D7F8D020C7F8A820C7F852
:103CC000A430D7F8A410D7F8A82041E80023C7F8FB
:103CD000A030D7F8A030002BD9D17B68DB6B002B4C
:103CE00013D07B68DB6B7E4A1A657B68DB6B1846FA
:103CF000FEF7C6F90346002B16D07B68DB6B1B6D05
:103D00007A68D26B104698470EE0786800F094F914
:103D10000AE0786800F090F906E0786800F08CF925
:103D20007B6800225A6475E100BF73E17B681B6BFE
:103D3000012B40F04F81D7F8E43003F01003002B43
:103D400000F04881D7F8E03003F01003002B00F0BA
:103D500041810023BB607B681B681B68BB607B687C
:103D60001B685B68BB60BB687B681B685B6903F0B2
:103D70004003402B40F0B6807B68DB6B1B685B68C0
:103D8000A7F8BE30B7F8BE30002B00F045817B6845
:103D90009B8DB7F8BE209A4280F03E817B68B7F8D1
:103DA000BE20DA857B68DB6BDB69B3F5807F00F0D2
:103DB00088807B681B680C33C7F88830D7F8883058
:103DC00053E8003FC7F88430D7F8843023F4807379
:103DD000C7F8B8307B681B680C33D7F8B820C7F831
:103DE0009420C7F89030D7F89010D7F8942041E885
:103DF0000023C7F88C30D7F88C30002BD9D17B68E2
:103E00001B6814337B677B6F53E8003F3B673B6F56
:103E100023F00103C7F8B4307B681B681433D7F86C
:103E2000B420C7F88020FB67F96FD7F8802041E8FD
:103E30000023BB67BB6F002BE1D17B681B68143389
:103E40003B663B6E53E8003FFB65FB6D23F0400390
:103E5000C7F8B0307B681B681433D7F8B020FA6617
:103E6000BB66B96EFA6E41E800237B667B6E002B61
:103E7000E3D17B68202283F842207B6800221A630A
:103E80007B681B680C33FB64FB6C53E8003FBB642E
:103E9000BB6C23F01003C7F8AC307B681B680C3395
:103EA000D7F8AC20BA657B65796DBA6D41E800231F
:103EB0003B653B6D002BE3D17B68DB6B1846FEF75F
:103EC0006FF87B6802225A637B689A8D7B68DB8D72
:103ED0009BB2D31A9BB21946786800F0B7F89BE002
:103EE0009F4100087B689A8D7B68DB8D9BB2D31A5B
:103EF000A7F8CE307B68DB8D9BB2002B00F08E8064
:103F0000B7F8CE30002B00F089807B681B680C333B
:103F1000BB63BB6B53E8003F7B637B6B23F4907305
:103F2000C7F8C8307B681B680C33D7F8C8207A64A0
:103F30003B64396C7A6C41E80023FB63FB6B002B1C
:103F4000E3D17B681B6814337B627B6A53E8003FD4
:103F50003B623B6A23F00103C7F8C4307B681B68EF
:103F60001433D7F8C4203A63FB62F96A3A6B41E82C
:103F70000023BB62BB6A002BE3D17B68202283F85D
:103F800042207B6800221A637B681B680C333B610C
:103F90003B6953E8003FFB60FB6823F01003C7F860
:103FA000C0307B681B680C33D7F8C020FA61BB6156
:103FB000B969FA6941E800237B617B69002BE3D191
:103FC0007B6802225A63B7F8CE301946786800F051
:103FD0003DF823E0D7F8E43003F08003002B09D04C
:103FE000D7F8E03003F08003002B03D0786800F0AE
:103FF000EAF814E0D7F8E43003F04003002B0ED0C9
:10400000D7F8E03003F04003002B08D0786800F0C8
:104010002AF904E000BF02E000BF00E000BFE8377B
:10402000BD4680BD80B483B000AF786000BF0C3760
:10403000BD465DF8047B704780B483B000AF786004
:1040400000BF0C37BD465DF8047B704780B483B079
:1040500000AF78600B467B8000BF0C37BD465DF833
:10406000047B704780B485B000AFF860B960134638
:10407000FB80FB68BA689A62FB68FA889A85FB68DD
:10408000FA88DA85FB6800225A64FB68222283F8EA
:104090004220FB681B69002B07D0FB681B68DA68AD
:1040A000FB681B6842F48072DA60FB681B685A691F
:1040B000FB681B6842F001025A61FB681B68DA6802
:1040C000FB681B6842F02002DA60002318461437B0
:1040D000BD465DF8047B704780B495B000AF786052
:1040E0007B681B680C337B637B6B53E8003F3B634F
:1040F0003B6B23F49073FB647B681B680C33FA6C96
:104100003A64FB63F96B3A6C41E80023BB63BB6B19
:10411000002BE5D17B681B6814333B623B6A53E894
:10412000003FFB61FB6923F00103BB647B681B68F4
:104130001433BA6CFA62BB62B96AFA6A41E80023C6
:104140007B627B6A002BE5D17B681B6B012B19D14D
:104150007B681B680C33FB60FB6853E8003FBB6067
:10416000BB6823F010037B647B681B680C337A6C9C
:10417000BA617B617969BA6941E800233B613B69B7
:10418000002BE5D17B68202283F842207B68002247
:104190001A6300BF5437BD465DF8047B704780B595
:1041A00084B000AF78607B689B6BFB60FB6800228B
:1041B000DA85FB680022DA84F868FFF73DFF00BF6C
:1041C0001037BD4680BD80B485B000AF78607B6895
:1041D00093F84130DBB2212B3ED17B689B68B3F56D
:1041E000805F14D17B681B69002B10D17B681B6A30
:1041F000FB60FB681B881A467B681B68C2F30802D9
:104200005A607B681B6A9A1C7B681A6208E07B68AC
:104210001B6A591C7A6811621A787B681B685A609D
:104220007B68DB8C9BB2013B9BB27A681946D184D8
:10423000002B0FD17B681B68DA687B681B6822F053
:104240008002DA607B681B68DA687B681B6842F072
:104250004002DA60002300E0022318461437BD460E
:104260005DF8047B704780B582B000AF78607B68F2
:104270001B68DA687B681B6822F04002DA607B68A2
:10428000202283F841207868FFF7CCFE00231846EF
:104290000837BD4680BD80B58CB000AF78607B68C4
:1042A00093F84230DBB2222B40F0AE807B689B68F3
:1042B000B3F5805F17D17B681B69002B13D10023F6
:1042C000FB627B689B6ABB627B681B685B689BB216
:1042D000C3F308039AB2BB6A1A807B689B6A9A1C74
:1042E0007B689A6226E07B689B6AFB620023BB6264
:1042F0007B689B68B3F5805F07D07B689B68002B69
:104300000AD17B681B69002B06D17B681B685B6840
:10431000DAB2FB6A1A7008E07B681B685B68DBB284
:1043200003F07F03DAB2FB6A1A707B689B6A5A1C3F
:104330007B689A627B68DB8D9BB2013B9BB27A689B
:104340001946D185002B5DD17B681B68DA687B68D4
:104350001B6822F02002DA607B681B68DA687B68E1
:104360001B6822F48072DA607B681B685A697B687C
:104370001B6822F001025A617B68202283F84220E8
:104380007B6800225A637B681B6B012B35D17B68ED
:1043900000221A637B681B680C337B617B6953E8DE
:1043A000003F3B613B6923F010037B627B681B6825
:1043B0000C337A6A3A62FB61F9693A6A41E8002390
:1043C000BB61BB69002BE5D17B681B681B6803F0F0
:1043D0001003102B0AD10023FB607B681B681B684D
:1043E000FB607B681B685B68FB60FB687B689B8D80
:1043F00019467868FFF72AFE02E07868FCF72AFF82
:10440000002302E0002300E0022318463037BD46B7
:1044100080BD00002DE9B04FC0B000AFC7F8F40078
:10442000D7F8F4301B681B6923F44050D7F8F430F8
:10443000D968D7F8F4301A6840EA01031361D7F855
:10444000F4309A68D7F8F4301B691A43D7F8F4307F
:104450005B691A43D7F8F430DB691343C7F8F830C7
:10446000D7F8F4301B68DB6823F4164121F00C0107
:10447000D7F8F4301A68D7F8F8300B43D360D7F880
:10448000F4301B685B6923F44070D7F8F430996905
:10449000D7F8F4301A6840EA01035361D7F8F430D2
:1044A0001A688F4B9A4205D0D7F8F4301A688D4BB2
:1044B0009A4204D1FEF702FCC7F8FC0003E0FEF7C5
:1044C000E9FBC7F8FC00D7F8F430DB69B3F5004F1F
:1044D00040F00C81D7F8FC300022C7F8E830C7F86C
:1044E000EC20D7E93A4522462B469118B9655B4145
:1044F000FB65D7E91623214612EB0108294643EB59
:1045000001094FF000024FF000034FEAC90343EAEC
:1045100058734FEAC80290469946234618EB0303A6
:10452000C7F8E0302B4649EB0303C7F8E430D7F86F
:10453000F4305B680022C7F8D830C7F8DC20D7E930
:1045400036120B46DB183B65134642EB03037B65D3
:10455000D7E91423D7E93801FCF730FA02460B46B5
:10456000614BA3FB02235B091C01D7F8FC3000223E
:10457000C7F8D030C7F8D420D7E9348942464B4633
:104580009118B9645B41FB64D7E91223414612EBF1
:10459000010A494643EB010B4FF000024FF00003C4
:1045A0004FEACB0343EA5A734FEACA0292469B464C
:1045B00043461AEB0303C7F8C8304B464BEB0303E3
:1045C000C7F8CC30D7F8F4305B680022C7F8C030A9
:1045D000C7F8C420D7E930120B46DB183B641346FA
:1045E00042EB03037B64D7E91023D7E93201FCF7E0
:1045F000E5F902460B4611463B4BA3FB01235B0941
:10460000642202FB03F3CB1ADB0003F13202364BC8
:10461000A3FB02235B095B0003F4F8731C44D7F887
:10462000FC300022C7F8B830C7F8BC20D7E92E8983
:1046300042464B469118B9635B41FB63D7E90E23B1
:1046400041465118396349464B417B634FF00002A4
:104650004FF00003D7E90CAB5946CB00514643EA73
:1046600051735146CA0010461946034642469B18EC
:10467000C7F8B0304B460A4642EB0303C7F8B430E4
:10468000D7F8F4305B680022C7F8A830C7F8AC2030
:10469000D7E92A120B46DB18BB62134642EB030331
:1046A000FB62D7E90A23D7E92C01FCF787F9024618
:1046B0000B460D4BA3FB02135B09642101FB03F3C3
:1046C000D31ADB003233084AA2FB03235B0903F051
:1046D0000702D7F8F4301B6822449A6006E100BF55
:1046E00000100140001401401F85EB51D7F8FC3049
:1046F0000022C7F8A030C7F8A420D7E9288942468D
:104700004B46911839625B417B62D7E908234146E9
:104710005418494643EB01054FF000024FF00003E7
:10472000EB0043EA5473E20014461D464346E31887
:10473000C7F898304B4645EB0303C7F89C30D7F8D1
:10474000F4305B680022C7F89030C7F894204FF02F
:1047500000024FF00003D7E9244529468B0021468B
:1047600043EA917321468A00D7E92601FCF726F92E
:1047700002460B46604BA3FB02235B091C01D7F8E2
:10478000FC300022C7F88830C7F88C20D7E922898E
:1047900042464B469118B9615B41FB61D7E906235C
:1047A00041465118396149464B417B614FF0000247
:1047B0004FF00003D7E904AB5946CB00514643EA1A
:1047C00051735146CA0010461946034642469B188B
:1047D000C7F880304B460A4642EB0303C7F88430E3
:1047E000D7F8F4305B680022BB67FA674FF000022D
:1047F0004FF00003D7E91E8949468B00414643EA42
:10480000917341468A00D7E92001FCF7D7F80246A8
:104810000B461146384BA3FB01235B09642202FBC4
:1048200003F3CB1A1B013233334AA2FB03235B0988
:1048300003F0F0031C44D7F8FC3000223B677A6792
:10484000D7E91C8942464B469118B9605B41FB6031
:10485000D7E9022341465118396049464B417B60F4
:104860004FF000024FF00003D7E900AB5946CB00F0
:10487000514643EA51735146CA0010461946034651
:1048800042469B18BB664B460A4642EB0303FB6657
:10489000D7F8F4305B6800223B667A664FF000027E
:1048A0004FF00003D7E9188949468B00414643EA97
:1048B000917341468A00D7E91A01FCF77FF8024656
:1048C0000B460D4BA3FB02135B09642101FB03F3B1
:1048D000D31A1B013233084AA2FB03235B0903F0FE
:1048E0000F02D7F8F4301B6822449A6000BF07F526
:1048F0008077BD46BDE8B08F1F85EB5180B485B091
:1049000000AF0346FB800023FB60B7F90630842B21
:1049100005D0B7F90620FB6813440333FB60FB683E
:1049200018461437BD465DF8047B704780B483B0E9
:1049300000AFEFF305837B607B68002B14BF01237E
:104940000023DBB218460C37BD465DF8047B704788
:1049500080B500AF01F042F90023184680BDF0B5E4
:1049600089B004AF786039607B685B69002B20D028
:104970007B689B69002B1CD07B685C687B681D682A
:104980007B681E697B68B3F908301846FFF7B6FFED
:1049900001467B685B697A68926902920193009193
:1049A0003B6832462946204600F050FF0346FB6034
:1049B0001CE07B685C687B681D687B681B699EB235
:1049C0007B68B3F908301846FFF798FF024607F1F5
:1049D0000C03019300923B6832462946204600F0C2
:1049E00092FF0346012B01D0002300E0FB6818462C
:1049F0001437BD46F0BD80B584B000AF78607B68E9
:104A0000FB60FB68002B01D0FB6800E00123184627
:104A100001F0B0F8002318461037BD4680BD80B5C0
:104A200082B000AF78607B685B68002B07D07B6842
:104A30005B681946012000F0AEFA034603E001204E
:104A400000F091FA034618460837BD4680BD0000C5
:104A500080B584B000AF786039600023BB607B68AC
:104A6000002B01D180233AE00023FB603B68B3F1C7
:104A7000FF3F03D14FF0FF33FB6009E03B68002BA1
:104A800006D03B68FB60FB68002B01D10123FB6073
:104A9000FFF74CFF0346002B17D007F108031A4617
:104AA0000021786800F02AFD0346012B01D0FF2386
:104AB00015E0BB68002B11D00B4B4FF080521A60F1
:104AC000BFF34F8FBFF36F8F08E0F968786800F08D
:104AD00009FC0346012B01D0FF2300E00023184608
:104AE0001037BD4680BD00BF04ED00E080B584B046
:104AF00000AF78600023FB600023BB60FFF716FF68
:104B00000346002B16D007F108031946786800F019
:104B10005BFB0346012B01D0FF2317E0BB68002B92
:104B200013D00C4B4FF080521A60BFF34F8FBFF37E
:104B30006F8F0AE0002300220021786800F046FA17
:104B40000346012B01D0FF23FB60FB68184610379A
:104B5000BD4680BD04ED00E080B483B000AF786056
:104B60007B6803F108027B685A607B684FF0FF3274
:104B70009A607B6803F108027B68DA607B6803F166
:104B800008027B681A617B6800221A6000BF0C373C
:104B9000BD465DF8047B704780B483B000AF786099
:104BA0007B6800221A6100BF0C37BD465DF8047BAC
:104BB000704780B485B000AF786039607B685B680F
:104BC000FB603B68FA685A60FB689A683B689A60C9
:104BD000FB689B683A685A60FB683A689A603B6871
:104BE0007A681A617B681B685A1C7B681A6000BF70
:104BF0001437BD465DF8047B704780B485B000AFC4
:104C0000786039603B681B68BB60BB68B3F1FF3FED
:104C100003D17B681B69FB600CE07B680833FB6099
:104C200002E0FB685B68FB60FB685B681B68BA6856
:104C30009A42F6D2FB685A683B685A603B685B68E8
:104C40003A689A603B68FA689A60FB683A685A600A
:104C50003B687A681A617B681B685A1C7B681A601B
:104C600000BF1437BD465DF8047B704780B485B043
:104C700000AF78607B681B69FB607B685B687A6863
:104C800092689A607B689B687A6852685A60FB6891
:104C90005B687A689A4203D17B689A68FB685A60BD
:104CA0007B6800221A61FB681B685A1EFB681A6049
:104CB000FB681B6818461437BD465DF8047B7047D7
:104CC00080B584B000AF786039607B68FB60FB68BA
:104CD000002B0AD14FF0500383F31188BFF36F8F7D
:104CE000BFF34F8FBB6000BFFEE701F0C3FEFB6860
:104CF0001A68FB68DB6BF968096C01FB03F31A4463
:104D0000FB689A60FB6800229A63FB681A68FB687C
:104D10005A60FB681A68FB68DB6B013BF968096C39
:104D200001FB03F31A44FB68DA60FB68FF2283F897
:104D30004420FB68FF2283F845203B68002B14D1F8
:104D4000FB681B69002B1AD0FB681033184601F072
:104D500087F90346002B12D00C4B4FF080521A609B
:104D6000BFF34F8FBFF36F8F09E0FB681033184616
:104D7000FFF7F2FEFB6824331846FFF7EDFE01F063
:104D8000A9FE012318461037BD4680BD04ED00E0A2
:104D900080B58EB002AFF860B9607A603B60FB68A6
:104DA000002B0AD14FF0500383F31188BFF36F8FAC
:104DB000BFF34F8FBB6200BFFEE73B68002B0AD1F9
:104DC0004FF0500383F31188BFF36F8FBFF34F8F02
:104DD0007B6200BFFEE77B68002B02D0BB68002B24
:104DE00001D0012300E00023002B0AD14FF0500333
:104DF00083F31188BFF36F8FBFF34F8F3B6200BF08
:104E0000FEE77B68002B02D1BB68002B01D1012398
:104E100000E00023002B0AD14FF0500383F31188E8
:104E2000BFF36F8FBFF34F8FFB6100BFFEE74823D7
:104E30007B617B69482B0AD04FF0500383F31188C4
:104E4000BFF36F8FBFF34F8FBB6100BFFEE77B697E
:104E50003B68FB62FB6A002B0DD0FB6A012283F8E2
:104E6000462097F83820FB6A009313467A68B968A1
:104E7000F86800F03FF8FB6A18463037BD4680BD41
:104E800080B58AB002AFF860B9601346FB71FB6869
:104E9000002B0AD14FF0500383F31188BFF36F8FBB
:104EA000BFF34F8F3B6100BFFEE7FB68BA6802FBB0
:104EB00003F3FB61FB694833184601F0FDFEB8615E
:104EC000BB69002B11D0BB697B617B6948337B6177
:104ED000BB69002283F84620FA79BB690093134628
:104EE0007A69B968F86800F005F8BB691846203798
:104EF000BD4680BD80B584B000AFF860B9607A600F
:104F0000FB70BB68002B03D1BB69BA691A6002E071
:104F1000BB697A681A60BB69FA68DA63BB69BA6808
:104F20001A640121B869FFF7CBFE00BF1037BD46F8
:104F300080BD80B582B000AF78607B68002B0ED05A
:104F40007B6800229A607B6800221A607B680022DE
:104F5000DA60002300220021786800F037F800BFF3
:104F60000837BD4680BD80B586B000AF0346FB71F3
:104F700001237B6100233B61FB791A46396978691B
:104F8000FFF77EFFF860F868FFF7D3FFFB6818466D
:104F90001837BD4680BD80B588B002AF0346396082
:104FA000FB7101237B6100233B61FB7900933B682C
:104FB000002239697869FFF7EBFEF860F868FFF7BF
:104FC000B8FFFB6818461837BD4680BD80B58EB067
:104FD00000AFF860B9607A603B6000237B63FB68D8
:104FE0003B633B6B002B0AD14FF0500383F31188D6
:104FF000BFF36F8FBFF34F8FBB6200BFFEE7BB688D
:10500000002B03D13B6B1B6C002B01D1012300E073
:105010000023002B0AD14FF0500383F31188BFF314
:105020006F8FBFF34F8F7B6200BFFEE73B68022BA1
:1050300003D13B6BDB6B012B01D1012300E000238B
:10504000002B0AD14FF0500383F31188BFF36F8F09
:10505000BFF34F8F3B6200BFFEE701F0BDF903468F
:10506000002B02D17B68002B01D1012300E000233B
:10507000002B0AD14FF0500383F31188BFF36F8FD9
:10508000BFF34F8FFB6100BFFEE701F0F3FC3B6B0A
:105090009A6B3B6BDB6B9A4202D33B68022B29D1A4
:1050A0003A68B968386B00F0C1FAF8623B6B5B6A2A
:1050B000002B10D03B6B2433184600F0D1FF034681
:1050C000002B13D03F4B4FF080521A60BFF34F8F2D
:1050D000BFF36F8F0AE0FB6A002B07D0394B4FF00C
:1050E00080521A60BFF34F8FBFF36F8F01F0F2FC55
:1050F000012363E07B68002B03D101F0EBFC00236C
:105100005CE07B6B002B06D107F11403184601F01D
:1051100009F801237B6301F0DDFC00F0BFFD01F025
:10512000A9FC3B6B93F844305BB2B3F1FF3F03D172
:105130003B6B002283F844203B6B93F845305BB215
:10514000B3F1FF3F03D13B6B002283F8452001F010
:10515000C1FC3A1D07F114031146184600F0F8FF90
:105160000346002B24D1386B00F058FB0346002B7C
:1051700018D03B6B10337A681146184600F04CFF8C
:10518000386B00F0E3FA00F097FD0346002B7FF444
:105190007CAF0C4B4FF080521A60BFF34F8FBFF3C0
:1051A0006F8F72E7386B00F0D1FA00F085FD6CE785
:1051B000386B00F0CBFA00F07FFD0023184638373B
:1051C000BD4680BD04ED00E080B58EB000AF7860D4
:1051D00039607B683B633B6B002B0AD14FF0500377
:1051E00083F31188BFF36F8FBFF34F8F3B6200BF14
:1051F000FEE73B6B1B6C002B0AD04FF0500383F390
:105200001188BFF36F8FBFF34F8FFB6100BFFEE7C5
:105210003B6B1B68002B03D13B6B9B68002B01D1C0
:10522000012300E00023002B0AD14FF0500383F349
:105230001188BFF36F8FBFF34F8FBB6100BFFEE7D5
:1052400001F0FAFCEFF311824FF0500383F3118861
:10525000BFF36F8FBFF34F8F7A613B617B69FB6256
:105260003B6B9B6BBB623B6BDB6BBA6A9A422BD28C
:105270003B6B93F8453087F82730BB6A5A1C3B6B71
:105280009A6397F92730B3F1FF3F12D13B6B5B6A0A
:10529000002B16D03B6B2433184600F0E1FE03468A
:1052A000002B0ED03B68002B0BD03B6801221A600C
:1052B00007E097F827300133DBB25AB23B6B83F833
:1052C000452001237B6301E000237B63FB6AFB60D5
:1052D000FB6883F3118800BF7B6B18463837BD46E7
:1052E00080BD000080B58EB000AF786039600023CB
:1052F0007B637B68FB6200233B63FB6A002B0AD164
:105300004FF0500383F31188BFF36F8FBFF34F8FBC
:105310003B6200BFFEE7FB6A1B6C002B0AD04FF01C
:10532000500383F31188BFF36F8FBFF34F8FFB617F
:1053300000BFFEE701F050F80346002B02D13B68A6
:10534000002B01D1012300E00023002B0AD14FF0F4
:10535000500383F31188BFF36F8FBFF34F8FBB618F
:1053600000BFFEE701F086FBFB6A9B6BBB62BB6A7A
:10537000002B24D0BB6A5A1EFB6A9A63FB6A1B6827
:10538000002B04D101F0D0F90246FB6A9A60FB6A57
:105390001B69002B0FD0FB6A1033184600F060FE2B
:1053A0000346002B07D0544B4FF080521A60BFF3D6
:1053B0004F8FBFF36F8F01F08DFB012397E03B68A8
:1053C000002B11D13B6B002B0AD04FF0500383F31D
:1053D0001188BFF36F8FBFF34F8F7B6100BFFEE774
:1053E00001F078FB002382E07B6B002B06D107F1F4
:1053F0000C03184600F096FE01237B6301F06AFB64
:1054000000F04CFC01F036FBFB6A93F844305BB2D1
:10541000B3F1FF3F03D1FB6A002283F84420FB6A0B
:1054200093F845305BB2B3F1FF3F03D1FB6A002232
:1054300083F8452001F04EFB3A4607F10C03114674
:10544000184600F085FE0346002B32D1F86A00F0C2
:10545000CFF90346002B26D0FB6A1B68002B09D12D
:1054600001F008FBFB6A9B68184600F0D3FF386325
:1054700001F030FBFB6A24333A681146184600F00D
:10548000CBFDF86A00F062F900F016FC0346002B31
:105490007FF468AF184B4FF080521A60BFF34F8F04
:1054A000BFF36F8F5EE7F86A00F050F900F004FC7C
:1054B00058E7F86A00F04AF900F0FEFBF86A00F0DD
:1054C00097F90346002B3FF44DAF3B6B002B0DD0FB
:1054D00001F0D0FAF86A00F091F87862FB6A9B68F4
:1054E000796A184601F092F801F0F4FA00231846A0
:1054F0003837BD4680BD00BF04ED00E080B58EB0FA
:1055000000AFF860B9607A60FB683B633B6B002BCF
:105510000AD14FF0500383F31188BFF36F8FBFF3AD
:105520004F8F3B6200BFFEE7BB68002B03D13B6B94
:105530001B6C002B01D1012300E00023002B0AD1BA
:105540004FF0500383F31188BFF36F8FBFF34F8F7A
:10555000FB6100BFFEE701F06FFBEFF311824FF03C
:10556000500383F31188BFF36F8FBFF34F8FBA617E
:105570007B61BB69FB623B6B9B6BBB62BB6A002BB5
:105580002FD03B6B93F8443087F82730B968386BDD
:1055900000F0B6F8BB6A5A1E3B6B9A6397F9273046
:1055A000B3F1FF3F12D13B6B1B69002B16D03B6B55
:1055B0001033184600F054FD0346002B0ED07B68D4
:1055C000002B0BD07B6801221A6007E097F8273088
:1055D0000133DBB25AB23B6B83F8442001237B6377
:1055E00001E000237B63FB6A3B613B6983F3118825
:1055F00000BF7B6B18463837BD4680BD80B485B090
:1056000000AF78607B685B6A002B06D07B681B6B01
:105610001B68C3F10703FB6001E00023FB60FB682C
:1056200018461437BD465DF8047B704780B586B0D8
:1056300000AFF860B9607A6000237B61FB689B6B08
:105640003B61FB681B6C002B0DD1FB681B68002BBA
:105650004DD1FB689B68184600F052FF7861FB68EB
:1056600000229A6043E07B68002B19D1FB685868E0
:10567000FB681B6C1A46B96801F034FDFB685A6878
:10568000FB681B6C1A44FB685A60FB685A68FB682D
:105690009B689A422BD3FB681A68FB685A6026E025
:1056A000FB68D868FB681B6C1A46B96801F01AFDE4
:1056B000FB68DA68FB681B6C5B421A44FB68DA60C3
:1056C000FB68DA68FB681B689A4207D2FB689A6835
:1056D000FB681B6C5B421A44FB68DA607B68022B38
:1056E00005D13B69002B02D03B69013B3B613B6923
:1056F0005A1CFB689A637B6918461837BD4680BD03
:1057000080B582B000AF786039607B681B6C002B7D
:1057100018D07B68DA687B681B6C1A447B68DA6097
:105720007B68DA687B689B689A4203D37B681A6857
:105730007B68DA607B68D9687B681B6C1A463868BE
:1057400001F0D0FC00BF0837BD4680BD80B584B0F5
:1057500000AF786001F08EF97B6893F84530FB73F9
:1057600011E07B685B6A002B12D07B6824331846FB
:1057700000F076FC0346002B01D000F04BFDFB7BD4
:10578000013BDBB2FB7397F90F30002BE9DC00E043
:1057900000BF7B68FF2283F8452001F09BF901F0F0
:1057A00069F97B6893F84430BB7311E07B681B692F
:1057B000002B12D07B681033184600F051FC0346D2
:1057C000002B01D000F026FDBB7B013BDBB2BB739D
:1057D00097F90E30002BE9DC00E000BF7B68FF2268
:1057E00083F8442001F076F900BF1037BD4680BD34
:1057F00080B584B000AF786001F03CF97B689B6BAA
:10580000002B02D10123FB6001E00023FB6001F0CB
:1058100061F9FB6818461037BD4680BD80B584B07D
:1058200000AF786001F026F97B689A6B7B68DB6BD0
:105830009A4202D10123FB6001E00023FB6001F0EA
:1058400049F9FB6818461037BD4680BD80B58EB05B
:1058500004AFF860B9607A603B607B6B002B0AD1C3
:105860004FF0500383F31188BFF36F8FBFF34F8F57
:105870003B6200BFFEE7BB6B002B0AD14FF0500329
:1058800083F31188BFF36F8FBFF34F8FFB6100BFAE
:10589000FEE754233B613B69542B0AD04FF0500381
:1058A00083F31188BFF36F8FBFF34F8FBB6100BFCE
:1058B000FEE73B69BB6B002B1ED07B6B002B1BD024
:1058C000BB6B7B627B6A7A6B1A637B6A022283F80A
:1058D0005120002303937B6A029307F11403019381
:1058E0003B6B00933B687A68B968F86800F050F841
:1058F000786A00F0D5F801E000237B617B691846E7
:105900002837BD4680BD80B58CB004AFF860B96063
:105910003B601346FB80FB889B00184601F0CCF9E6
:1059200078617B69002B0ED0542001F0C5F9F86135
:10593000FB69002B03D0FB697A691A6305E078697B
:1059400001F086FA01E00023FB61FB69002B17D010
:10595000FB69002283F85120FA8800230393FB6936
:105960000293FB6A0193BB6A00933B68B968F868CD
:1059700000F00EF8F86900F093F80123BB6102E033
:105980004FF0FF33BB61BB6918462037BD4680BD71
:1059900080B588B000AFF860B9607A603B603B6B5F
:1059A0001A6B7B6803F18043013B9B001344BB618E
:1059B000BB6923F00703BB61BB6903F00703002B3E
:1059C0000AD04FF0500383F31188BFF36F8FBFF3FA
:1059D0004F8F7B6100BFFEE7BB68002B1FD0002309
:1059E000FB6112E0BA68FB69134419783A6BFB69F2
:1059F000134434330A461A70BA68FB6913441B789F
:105A0000002B06D0FB690133FB61FB690F2BE9D941
:105A100000E000BF3B6B002283F8432003E03B6BB8
:105A2000002283F83420BB6A062B01D90623BB620F
:105A30003B6BBA6ADA623B6BBA6A5A643B6B002210
:105A40009A643B6B04331846FFF7A6F83B6B183398
:105A50001846FFF7A1F83B6B3A6B1A61BB6AC3F1BA
:105A600007023B6B9A613B6B3A6B5A623B6B0022BD
:105A7000DA643B6B002283F850203A68F968B86911
:105A800000F0CCFE02463B6B1A60FB6A002B02D092
:105A9000FB6A3A6B1A6000BF2037BD4680BD00002C
:105AA00080B582B000AF786000F0E4FF2A4B1B683D
:105AB0000133294A1360294B1B68002B09D1274A5F
:105AC0007B681360244B1B68012B10D100F0C6FBD0
:105AD0000DE0234B1B68002B09D1204B1B68DA6AB1
