:020000040800F2
:1000000000000120191700088D160008931600083B
:10001000991600089F160008A516000800000000A9
:100020000000000000000000000000001140000877
:10003000AB1600080000000061420008C942000839
:100040006917000869170008691700086917000890
:100050006917000869170008691700086917000880
:100060006917000869170008691700086917000870
:100070006917000869170008691700086917000860
:1000800069170008691700086917000800000000D8
:1000900000000000000000000000000069170008D8
:1000A000691700086917000869170008B9160008E1
:1000B000CD160008E1160008691700086917000846
:1000C0006917000869170008691700086917000810
:1000D0006917000869170008691700080000000088
:1000E0006917000869170008691700080000000078
:1000F0000000000000000000000000006917000878
:100100000000000069170008691700086917000857
:1001100000000000000000000000000000000000DF
:1001200069170008691700086917000869170008AF
:100130006917000800000000000000000000000037
:100140000000000000000000000000006917000827
:10015000691700086917000869170008691700087F
:10016000691700086917000800000000000000007F
:10017000000000000000000000000000000000007F
:1001800000000000691700080000000000000000E7
:0401900069170008E3
:1001A00010B5054C237833B9044B13B10448AFF3B1
:1001B00000800123237010BD10000020000000000B
:1001C0009447000808B5034B1BB103490348AFF33C
:1001D000008008BD000000001400002094470008C3
:1001E00081F0004102E000BF83F0004330B54FEAE8
:1001F00041044FEA430594EA050F08BF90EA020F55
:100200001FBF54EA000C55EA020C7FEA645C7FEAE7
:10021000655C00F0E2804FEA5454D4EB5555B8BF0A
:100220006D420CDD2C4480EA020281EA030382EA7B
:10023000000083EA010180EA020281EA0303362D0D
:1002400088BF30BD11F0004F4FEA01314FF4801CE0
:100250004CEA113102D0404261EB410113F0004FF2
:100260004FEA03334CEA133302D0524263EB4303A9
:1002700094EA050F00F0A780A4F10104D5F1200E47
:100280000DDB02FA0EFC22FA05F2801841F10001A2
:1002900003FA0EF2801843FA05F359410EE0A5F176
:1002A00020050EF1200E012A03FA0EFC28BF4CF0A7
:1002B000020C43FA05F3C01851EBE37101F000455D
:1002C00007D54FF0000EDCF1000C7EEB00006EEB6A
:1002D0000101B1F5801F1BD3B1F5001F0CD34908F4
:1002E0005FEA30004FEA3C0C04F101044FEA44524B
:1002F00012F5800F80F09A80BCF1004F08BF5FEAD2
:10030000500C50F1000041EB045141EA050130BDB1
:100310005FEA4C0C404141EB0101013C28BFB1F5C3
:10032000801FE9D291F0000F04BF01460020B1FA0E
:1003300081F308BF2033A3F10B03B3F120020CDAE1
:100340000C3208DD02F1140CC2F10C0201FA0CF0BF
:1003500021FA02F10CE002F11402D8BFC2F1200C24
:1003600001FA02F120FA0CFCDCBF41EA0C019040DA
:10037000E41AA2BF01EB0451294330BD6FEA040423
:100380001F3C1CDA0C340EDC04F11404C4F120020E
:1003900020FA04F001FA02F340EA030021FA04F320
:1003A00045EA030130BDC4F10C04C4F1200220FA77
:1003B00002F001FA04F340EA0300294630BD21FAB5
:1003C00004F0294630BD94F0000F83F4801306BF7B
:1003D00081F480110134013D4EE77FEA645C18BF6F
:1003E0007FEA655C29D094EA050F08BF90EA020F06
:1003F00005D054EA000C04BF1946104630BD91EAFE
:10040000030F1EBF0021002030BD5FEA545C05D100
:100410004000494128BF41F0004130BD14F580043F
:100420003CBF01F5801130BD01F0004545F0FE41B3
:1004300041F470014FF0000030BD7FEA645C1ABFE8
:10044000194610467FEA655C1CBF0B46024650EA1F
:10045000013406BF52EA033591EA030F41F400214B
:1004600030BD00BF90F0000F04BF0021704730B5D1
:100470004FF4806404F132044FF000054FF00001A6
:1004800050E700BF90F0000F04BF0021704730B567
:100490004FF4806404F1320410F0004548BF40423C
:1004A0004FF000013EE700BF42004FEAE2014FEA91
:1004B00031014FEA02701FBF12F07F4393F07F4F6C
:1004C00081F06051704732F07F4208BF704793F06F
:1004D0007F4F04BF41F40021704730B54FF4607482
:1004E00001F0004521F000411CE700BF50EA010285
:1004F00008BF704730B54FF000050AE050EA01022E
:1005000008BF704730B511F0004502D5404261EB9D
:1005100041014FF4806404F132045FEA915C3FF4DE
:10052000D8AE4FF003025FEADC0C18BF03325FEA7B
:10053000DC0C18BF033202EBDC02C2F1200300FA2C
:1005400003FC20FA02F001FA03FE40EA0E0021FA51
:1005500002F11444BDE600BF70B54FF0FF0C4CF43F
:10056000E06C1CEA11541DBF1CEA135594EA0C0FF1
:1005700095EA0C0F00F0DEF82C4481EA030621EA2C
:100580004C5123EA4C5350EA013518BF52EA033567
:1005900041F4801143F4801338D0A0FB02CE4FF019
:1005A0000005E1FB02E506F00042E0FB03E54FF049
:1005B0000006E1FB03569CF0000F18BF4EF0010E41
:1005C000A4F1FF04B6F5007F64F5407404D25FEA3D
:1005D0004E0E6D4146EB060642EAC62141EA5551F0
:1005E0004FEAC52040EA5E504FEACE2EB4F1FD0C32
:1005F00088BFBCF5E06F1ED8BEF1004F08BF5FEAB0
:10060000500E50F1000041EB045170BD06F0004661
:1006100046EA010140EA020081EA0301B4EB5C040E
:10062000C2BFD4EB0C0541EA045170BD41F4801106
:100630004FF0000E013C00F3AB8014F1360FDEBF2B
:10064000002001F0004170BDC4F10004203C35DA07
:100650000C341BDC04F11404C4F1200500FA05F38A
:1006600020FA04F001FA05F240EA020001F000422B
:1006700021F0004110EBD37021FA04F642EB0601A1
:100680005EEA430E08BF20EAD37070BDC4F10C04CB
:10069000C4F1200500FA04F320FA05F001FA04F28F
:1006A00040EA020001F0004110EBD37041F100017B
:1006B0005EEA430E08BF20EAD37070BDC4F1200586
:1006C00000FA05F24EEA020E20FA04F301FA05F2EE
:1006D00043EA020321FA04F001F0004121FA04F296
:1006E00020EA020000EBD3705EEA430E08BF20EA66
:1006F000D37070BD94F0000F0FD101F000464000A0
:1007000041EB010111F4801F08BF013CF7D041EA21
:10071000060195F0000F18BF704703F00046520025
:1007200043EB030313F4801F08BF013DF7D043EAF6
:100730000603704794EA0C0F0CEA135518BF95EAAC
:100740000C0F0CD050EA410618BF52EA4306D1D133
:1007500081EA030101F000414FF0000070BD50EA52
:10076000410606BF1046194652EA430619D094EADC
:100770000C0F02D150EA013613D195EA0C0F05D1C6
:1007800052EA03361CBF104619460AD181EA03011A
:1007900001F0004141F0FE4141F470014FF00000D2
:1007A00070BD41F0FE4141F4780170BD70B54FF06D
:1007B000FF0C4CF4E06C1CEA11541DBF1CEA1355ED
:1007C00094EA0C0F95EA0C0F00F0A7F8A4EB0504CF
:1007D00081EA030E52EA03354FEA013100F08880C6
:1007E0004FEA03334FF0805545EA131343EA12638F
:1007F0004FEA022245EA111545EA10654FEA002644
:100800000EF000419D4208BF964244F1FD0404F5FC
:10081000407402D25B084FEA3202B61A65EB030558
:100820005B084FEA32024FF480104FF4002CB6EB15
:10083000020E75EB030E22BFB61A754640EA0C0095
:100840005B084FEA3202B6EB020E75EB030E22BFD5
:10085000B61A754640EA5C005B084FEA3202B6EB16
:10086000020E75EB030E22BFB61A754640EA9C00D5
:100870005B084FEA3202B6EB020E75EB030E22BFA5
:10088000B61A754640EADC0055EA060E18D04FEA63
:10089000051545EA16754FEA06164FEAC30343EA03
:1008A00052734FEAC2025FEA1C1CC0D111F4801FD0
:1008B0000BD141EA00014FF000004FF0004CB6E7C9
:1008C00011F4801F04BF01430020B4F1FD0C88BF68
:1008D000BCF5E06F3FF6AFAEB5EB030C04BFB6EB73
:1008E000020C5FEA500C50F1000041EB045170BD66
:1008F0000EF0004E4EEA113114EB5C04C2BFD4EB93
:100900000C0541EA045170BD41F480114FF0000E16
:10091000013C90E645EA060E8DE60CEA135594EA92
:100920000C0F08BF95EA0C0F3FF43BAF94EA0C0F95
:100930000AD150EA01347FF434AF95EA0C0F7FF40A
:1009400025AF104619462CE795EA0C0F06D152EA5E
:1009500003353FF4FDAE1046194622E750EA410642
:1009600018BF52EA43067FF4C5AE50EA41047FF453
:100970000DAF52EA43057FF4EBAE12E74A0011D205
:1009800012F5001211D20DD56FF47873B3EB6252E9
:100990000ED44FEAC12343F0004343EA505323FAF5
:1009A00002F070474FF00000704750EA013002D16A
:1009B0004FF0FF3070474FF00000704753B94AB90D
:1009C000002908BF00281CBF4FF0FF314FF0FF3057
:1009D00000F070B9ADF1080C6DE904CE00F006F836
:1009E000DDF804E0DDE9022304B070472DE9F047AB
:1009F000089E0D4604460F46002B4AD18A42944673
:100A000065D9B2FA82F343B102FA03FCC3F12002C2
:100A10009F4020FA02F217439C404FEA1C4E1FFAF7
:100A20008CF5B7FBFEF1220C0EFB117742EA074270
:100A300001FB05F090420AD91CEB020201F1FF37DD
:100A400080F01C81904240F2198102396244121AEE
:100A5000A4B2B2FBFEF00EFB102244EA024400FBFB
:100A600005F5A5420AD91CEB040400F1FF3280F021
:100A70000781A54240F204816444023840EA014003
:100A8000641B00211EB1DC400023C6E90043BDE821
:100A9000F0878B4208D9002E00F0ED800021C6E9D6
:100AA00000050846BDE8F087B3FA83F1002949D173
:100AB000AB4202D3824200F2F880841A65EB030253
:100AC00001201746002EE2D0C6E90047DFE702B951
:100AD000FFDEB2FA82F3002B40F090808A1A4FEAD0
:100AE0001C471FFA8CFE0121B2FBF7F507FB15200E
:100AF000220C42EA00420EFB05F0904208D91CEBA2
:100B0000020205F1FF3802D2904200F2CB80454646
:100B1000121AA4B2B2FBF7F007FB102244EA024417
:100B20000EFB00FEA64508D91CEB040400F1FF32C1
:100B300002D2A64500F2BB801046A4EB0E0440EAA8
:100B400005409FE7C1F120078B4022FA07FC4CEAE1
:100B5000030C05FA01F420FA07F3FD404FEA1C49A3
:100B60002343B5FBF9F81FFA8CFE09FB18551C0C42
:100B700044EA054408FB0EF5A54202FA01F200FA28
:100B800001F00BD91CEB040408F1FF3A80F08880D7
:100B9000A54240F28580A8F102086444641B9DB21E
:100BA000B4FBF9F309FB134445EA044403FB0EFECE
:100BB000A64508D91CEB040403F1FF356CD2A64509
:100BC0006AD9023B644443EA0843A3FB0295A4EBC1
:100BD0000E04AC42C846AE4656D353D056B1B0EB25
:100BE000080264EB0E0404FA07F7CA40CC4017432E
:100BF000C6E9007418460021BDE8F087C3F1200162
:100C000002FA03FC20FA01F225FA01F19D402A4381
:100C10004FEA1C471FFA8CFEB1FBF7F007FB1015DB
:100C2000110C41EA054100FB0EF58D4204FA03F474
:100C300008D91CEB010100F1FF382FD28D422DD9CC
:100C400002386144491B92B2B1FBF7F507FB15115D
:100C500042EA014205FB0EF1914208D91CEB020267
:100C600005F1FF3816D2914214D9023D6244521A5E
:100C700045EA004138E73146304608E73946E6E6BE
:100C80001046FBE64845A9D2B9EB020865EB0C0E0D
:100C9000013BA3E74546EAE72B4694E74046D1E708
:100CA000D0467BE7023D624432E708460AE76444E7
:100CB000023842E7704700BF80B483B000AF0346FC
:100CC000FB80094B1B6800225A6200BF064B1B6861
:100CD0005A6AFB889A42F9D300BF00BF0C37BD4661
:100CE0005DF8047B704700BF8002002080B584B0AF
:100CF00000AFF8600B467A607B817B890122194640
:100D0000F86800F0DBFF0A20FFF7D6FF7B8900229E
:100D10001946F86800F0D2FF7B681B68DA687B68C8
:100D20001B6842F00202DA6000BF1037BD4680BD8A
:100D300080B485B000AFF860B9607A60FB68074A9C
:100D40001A60BB68064A1A607B6880221A6000BF7E
:100D50001437BD465DF8047B704700BF2C000020AF
:100D6000800000200000000080B582B000AF7860F5
:100D70007B681B68B3F1804F40F088807B681B7FE5
:100D8000012B40F083808C4B1B78002B1AD1002163
:100D9000786801F0D5FF0346884A1360864B01222C
:100DA0001A707B681B681A6A7B681B6822F00A024B
:100DB0001A627B681B681A6A7B681B6842F0020231
:100DC0001A6263E07C4B1B78012B5FD100217868AD
:100DD00001F0B6FF03467A4A13607B681B68002265
:100DE0005A62774B1A68754B1B689A4207D9744B45
:100DF0001A68724B1B68D31A724A13600FE06F4B6C
:100E00001A686F4B1B689A4209D96D4B1A686B4B75
:100E10001B68D31A03F57F43FF336A4A1360694B9B
:100E20001B681846FFF71EFB61A3D3E90023FFF7F9
:100E300093FB02460B46104619464FF000024FF056
:100E40008043FFF7B3FC02460B4610461946FFF7F6
:100E500095FD0346DAB25C4B1A70574B00221A70AC
:100E60007B681B681A6A7B681B6822F00A021A6298
:100E70007B681A687B681B68126A1A62534B1B688E
:100E8000DA68524B1B6822F00202DA607B681B684A
:100E90004F4A934240F088807B681B7F012B40F0D3
:100EA00083804C4B1B78002B1AD10021786801F00D
:100EB00047FF0346484A1360464B01221A707B687D
:100EC0001B681A6A7B681B6822F00A021A627B6838
:100ED0001B681A6A7B681B6842F002021A6263E0B0
:100EE0003C4B1B78012B5FD10021786801F028FF73
:100EF00003463A4A13607B681B6800225A62374BEC
:100F00001A68354B1B689A4207D9344B1A68324B22
:100F10001B68D31A324A13600FE02F4B1A682F4B0D
:100F20001B689A4209D92D4B1A682B4B1B68D31AA0
:100F300003F57F43FF332A4A1360294B1B68184689
:100F4000FFF790FA1AA3D3E90023FFF705FB024647
:100F50000B46104619464FF000024FF08043FFF752
:100F600025FC02460B4610461946FFF707FD0346CF
:100F7000DAB21C4B1A70174B00221A707B681B6880
:100F80001A6A7B681B6822F00A021A627B681A6878
:100F90007B681B68126A1A62134B1B68DA68124B73
:100FA0001B6822F00202DA6000BF0837BD4680BD30
:100FB0009CC420B07268A13F380300202C0300209D
:100FC000300300203403002039030020C802002031
:100FD00000000140280300201C0300202003002003
:100FE000240300202903002080020020B0B596B021
:100FF00000AF00F0BBFB00F059F800F05FF900F023
:10100000B5F800F009F90021204801F0F3FB0021B8
:101010001F4801F0EFFB1F4B07F13C041D460FCDAD
:101020000FC495E8070084E8070007F13C0300219E
:10103000184602F058F90346174A1360174B07F198
:1010400020041D460FCD0FC495E8070084E8070073
:1010500007F120030021184602F045F90346104A23
:101060001360104B3C1D1D460FCD0FC495E80700C3
:1010700084E807003B1D0021184602F034F90346BE
:10108000094A136002F028F9FEE700BF8002002041
:10109000C8020020B847000810030020E4470008F9
:1010A00014030020104800081803002080B594B0F5
:1010B00000AF07F1200330220021184603F03EFB69
:1010C00007F10C0300221A605A609A60DA601A6114
:1010D0000023BB60234B1B6C224A43F080531364F4
:1010E000204B1B6C03F08053BB60BB6800237B600C
:1010F0001D4B1B6823F440431B4A43F40043136019
:10110000194B1B6803F440437B607B6802233B62FE
:101110000123FB6210233B630023BB6307F1200321
:10112000184600F0E5FD0346002B01D000F074F9ED
:101130000F23FB6000233B6100237B614FF480534E
:10114000BB610023FB6107F10C030021184601F08D
:1011500047F80346002B01D000F05EF900BF50377E
:10116000BD4680BD003802400070004080B586B0AA
:1011700000AF07F1100300221A605A603B460022BC
:101180001A605A609A60DA60214B224A1A60204B3A
:101190000F225A601E4B00229A601D4B4FF6FE72C2
:1011A000DA601B4B00221A61194B00225A61184B5E
:1011B00000229A61164801F0CDFA0346002B01D0B7
:1011C00000F02AF900233B6100237B6107F1100343
:1011D00019460F4801F0E6FF0346002B01D000F04E
:1011E0001BF900233B6001237B600023BB600023CD
:1011F000FB603B4600221946054801F005FD034609
:10120000002B01D000F008F900BF1837BD4680BDA3
:10121000800200200000014080B586B000AF07F1D9
:10122000100300221A605A603B4600221A605A607E
:101230009A60DA60204B4FF080421A601E4B0F22FA
:101240005A601D4B00229A601B4B4FF6FE72DA600B
:10125000194B00221A61184B00229A61164801F0BE
:1012600079FA0346002B01D000F0D6F800233B6149
:1012700000237B6107F1100319460F4801F092FF2C
:101280000346002B01D000F0C7F800233B60012388
:101290007B600023BB600023FB603B4600221946B5
:1012A000054801F0B1FC0346002B01D000F0B4F872
:1012B00000BF1837BD4680BDC802002080B588B089
:1012C00000AF07F10C0300221A605A609A60DA60DE
:1012D0001A610023BB60244B1B6B234A43F00103BC
:1012E0001363214B1B6B03F00103BB60BB6800233E
:1012F0007B601D4B1B6B1C4A43F0020313631A4BAC
:101300001B6B03F002037B607B68002240F2FE212E
:10131000164800F0D3FC00224FF40041144800F0BE
:10132000CDFC40F2FE23FB6001233B6100237B6187
:101330000023BB6107F10C0319460C4800F03AFB8F
:101340004FF40043FB6001233B6100237B610023DA
:10135000BB6107F10C031946054800F02BFB00BFE9
:101360002037BD4680BD00BF00380240000002406B
:101370000004024080B582B000AF7860012001F027
:10138000FEFFFBE780B582B000AF78600C4A4FF4F7
:1013900000710C48FFF7AAFC0B4B1B780E2B05D8ED
:1013A00001220221074800F089FC04E0002202210A
:1013B000044800F083FC4FF4FA7001F0E0FFE5E729
:1013C00080020020000002402903002080B582B086
:1013D00000AF7860054A4FF400410548FFF786FCEE
:1013E0004FF47A7001F0CBFFF4E700BFC802002091
:1013F0000004024080B582B000AF78607B681B6853
:10140000044A934201D100F0D3F900BF0837BD462A
:1014100080BD00BF0004004080B400AF72B600BFC2
:10142000FEE7000080B582B000AF00237B60124B66
:101430005B6C114A43F4804353640F4B5B6C03F4C1
:1014400080437B607B6800233B600B4B1B6C0A4A2C
:1014500043F080531364084B1B6C03F080533B60D4
:101460003B6800220F216FF0010000F079FA00BF05
:101470000837BD4680BD00BF0038024080B58CB043
:1014800000AF786007F11C0300221A605A609A606E
:10149000DA601A617B681B683B4A934235D10023AE
:1014A000BB613A4B5B6C394A43F001035364374BE1
:1014B0005B6C03F00103BB61BB6900237B61334BB1
:1014C0001B6B324A43F001031363304B1B6B03F079
:1014D00001037B617B694FF48073FB6102233B62F4
:1014E00000237B620023BB620123FB6207F11C0324
:1014F0001946274800F05EFA002205211B2000F063
:101500002FFA1B2000F048FA39E07B681B68B3F122
:10151000804F34D100233B611C4B1B6C1B4A43F0B2
:1015200001031364194B1B6C03F001033B613B691E
:101530000023FB60154B1B6B144A43F0010313633C
:10154000124B1B6B03F00103FB60FB684FF400437D
:10155000FB6102233B6200237B620023BB62012309
:10156000FB6207F11C031946094800F023FA002228
:1015700005211C2000F0F4F91C2000F00DFA00BF3A
:101580003037BD4680BD00BF00000140003802403A
:101590000000024080B58EB000AF78600023FB628F
:1015A0000023BB620023FB60334B1B6C324A43F0C9
:1015B00002031364304B1B6C03F00203FB60FB68F7
:1015C00007F1100207F114031146184600F0D4FF8A
:1015D0003B6AFB62FB6A002B03D100F0B9FF786322
:1015E00004E000F0B5FF03465B007B637B6B234A9E
:1015F000A2FB03239B0C013BBB62214B214A1A60D7
:101600001F4B40F2E732DA601D4ABB6A53601C4B45
:1016100000221A611A4B00229A60194B00229A612B
:10162000174800F0DBFF034687F8333097F8333074
:10163000002B1BD1124801F02BF8034687F83330FA
:1016400097F83330002B11D11D2000F0A5F97B68ED
:101650000F2B08D8002279681D2000F081F90A4A72
:101660007B68136002E0012387F8333097F833304A
:1016700018463837BD4680BD0038024083DE1B4324
:101680003C030020000400400400002080B400AFB0
:10169000FEE780B400AFFEE780B400AFFEE780B4A1
:1016A00000AFFEE780B400AFFEE780B400AF00BF3C
:1016B000BD465DF8047B704780B500AF024801F07D
:1016C000B3F900BF80BD00BF8002002080B500AF2D
:1016D000024801F0A9F900BF80BD00BFC802002088
:1016E00080B500AF024801F09FF900BF80BD00BF88
:1016F0003C03002080B400AF064BD3F88830054A85
:1017000043F47003C2F8883000BFBD465DF8047B27
:10171000704700BF00ED00E0DFF834D0FFF7EAFFCC
:101720000C480D490D4A002302E0D458C45004333C
:10173000C4188C42F9D30A4A0A4C002301E0136012
:101740000432A242FBD303F001F8FFF74FFC7047CD
:101750000000012000000020100000205C4800086C
:1017600010000020DC400020FEE7000080B500AF44
:101770000E4B1B680D4A43F4007313600B4B1B6840
:101780000A4A43F480631360084B1B68074A43F41A
:1017900080731360032000F0D8F80F20FFF7FAFEE3
:1017A000FFF740FE0023184680BD00BF003C02400A
:1017B00080B400AF064B1B781A46064B1B681344D7
:1017C000044A136000BFBD465DF8047B704700BF4C
:1017D000080000208403002080B400AF034B1B6886
:1017E0001846BD465DF8047B704700BF84030020A7
:1017F00080B485B000AF78607B6803F00703FB60BE
:101800000C4BDB68BB60BA684FF6FF031340BB604C
:10181000FB681A02BB68134343F0BF6343F4003311
:10182000BB60044ABB68D36000BF1437BD465DF897
:10183000047B704700ED00E080B400AF044BDB6830
:101840001B0A03F007031846BD465DF8047B70478A
:1018500000ED00E080B483B000AF0346FB7197F960
:101860000730002B0BDBFB7903F01F02074997F9C8
:1018700007305B09012000FA02F241F8232000BF83
:101880000C37BD465DF8047B704700BF00E100E007
:1018900080B483B000AF03463960FB7197F907301D
:1018A000002B0ADB3B68DAB20C4997F907301201CA
:1018B000D2B20B4483F800230AE03B68DAB208494D
:1018C000FB7903F00F03043B1201D2B20B441A76EA
:1018D00000BF0C37BD465DF8047B704700E100E0B7
:1018E00000ED00E080B489B000AFF860B9607A60C4
:1018F000FB6803F00703FB61FB69C3F10703042BDB
:1019000028BF0423BB61FB690433062B02D9FB69A2
:10191000033B00E000237B614FF0FF32BB6902FA1A
:1019200003F3DA43BB681A407B699A404FF0FF31FA
:101930007B6901FA03F3D9437B680B4013431846D4
:101940002437BD465DF8047B704780B582B000AF98
:1019500078607868FFF74CFF00BF0837BD4680BD50
:1019600080B586B000AF0346B9607A60FB73002390
:101970007B61FFF761FF78617A68B9687869FFF782
:10198000B1FF024697F90F3011461846FFF780FF66
:1019900000BF1837BD4680BD80B582B000AF03469A
:1019A000FB7197F907301846FFF754FF00BF08375F
:1019B000BD4680BD80B489B000AF78603960002337
:1019C0007B6100233B610023BB610023FB6159E184
:1019D0000122FB6902FA03F37B613B681B687A69A9
:1019E00013403B613A697B699A4240F048813B6809
:1019F0005B6803F00303012B05D03B685B6803F0D1
:101A00000303022B30D17B689B68BB61FB695B00E1
:101A1000032202FA03F3DB43BA691340BB613B685C
:101A2000DA68FB695B0002FA03F3BA691343BB612E
:101A30007B68BA699A607B685B68BB610122FB695D
:101A400002FA03F3DB43BA691340BB613B685B688E
:101A50001B0903F00102FB6902FA03F3BA6913439D
:101A6000BB617B68BA695A603B685B6803F003033B
:101A7000032B17D07B68DB68BB61FB695B0003222B
:101A800002FA03F3DB43BA691340BB613B689A680F
:101A9000FB695B0002FA03F3BA691343BB617B681D
:101AA000BA69DA603B685B6803F00303022B23D159
:101AB000FB69DA087B68083253F82230BB61FB69A6
:101AC00003F007039B000F2202FA03F3DB43BA691A
:101AD0001340BB613B681A69FB6903F007039B0075
:101AE00002FA03F3BA691343BB61FB69DA087B6846
:101AF0000832B96943F822107B681B68BB61FB6937
:101B00005B00032202FA03F3DB43BA691340BB61B3
:101B10003B685B6803F00302FB695B0002FA03F3B6
:101B2000BA691343BB617B68BA691A603B685B683A
:101B300003F44033002B00F0A2800023FB60574BDE
:101B40005B6C564A43F480435364544B5B6C03F420
:101B50008043FB60FB68524AFB699B08023352F8E2
:101B60002330BB61FB6903F003039B000F2202FAE1
:101B700003F3DB43BA691340BB617B68494A934274
:101B800019D07B68484A934213D07B68474A9342F6
:101B90000DD07B68464A934207D07B68454A934202
:101BA00001D1042308E0072306E0032304E0022315
:101BB00002E0012300E00023FA6902F00302920030
:101BC0009340BA691343BB613549FB699B080233F3
:101BD000BA6941F82320384B9B68BB613B69DB4302
:101BE000BA691340BB613B685B6803F48013002B48
:101BF00003D0BA693B691343BB612F4ABB69936049
:101C00002D4BDB68BB613B69DB43BA691340BB61A9
:101C10003B685B6803F40013002B03D0BA693B698F
:101C20001343BB61244ABB69D360234B5B68BB6130
:101C30003B69DB43BA691340BB613B685B6803F4F3
:101C40000033002B03D0BA693B691343BB611A4AC6
:101C5000BB695360184B1B68BB613B69DB43BA69C6
:101C60001340BB613B685B6803F48033002B03D0F7
:101C7000BA693B691343BB610F4ABB691360FB69D7
:101C80000133FB61FB690F2B7FF6A2AE00BF00BFE3
:101C90002437BD465DF8047B704700BF0038024022
:101CA00000380140000002400004024000080240E9
:101CB000000C024000100240003C014080B483B0A0
:101CC00000AF78600B467B8013467B707B78002BDF
:101CD00003D07A887B689A6103E07B881A047B686A
:101CE0009A6100BF0C37BD465DF8047B7047000069
:101CF00080B586B000AF78607B68002B01D10123EE
:101D000067E27B681B6803F00103002B75D0884BEA
:101D10009B6803F00C03042B0CD0854B9B6803F0ED
:101D20000C03082B12D1824B5B6803F48003B3F5DC
:101D3000800F0BD17E4B1B6803F40033002B5BD06C
:101D40007B685B68002B57D1012342E27B685B68AC
:101D5000B3F5803F06D1764B1B68754A43F4803358
:101D600013601DE07B685B68B3F5A02F0CD1704B4E
:101D70001B686F4A43F4802313606D4B1B686C4AE9
:101D800043F4803313600BE0694B1B68684A23F40B
:101D900080331360664B1B68654A23F4802313600D
:101DA0007B685B68002B13D0FFF716FD386108E0F5
:101DB000FFF712FD02463B69D31A642B01D90323B6
:101DC00007E25B4B1B6803F40033002BF0D014E0F8
:101DD000FFF702FD386108E0FFF7FEFC02463B69B1
:101DE000D31A642B01D90323F3E1514B1B6803F48D
:101DF0000033002BF0D100E000BF7B681B6803F0CC
:101E00000203002B63D04A4B9B6803F00C03002BAA
:101E10000BD0474B9B6803F00C03082B1CD1444BA1
:101E20005B6803F48003002B16D1414B1B6803F061
:101E30000203002B05D07B68DB68012B01D0012356
:101E4000C7E13B4B1B6823F0F8027B681B69DB0092
:101E5000374913430B603AE07B68DB68002B20D0E6
:101E6000344B01221A60FFF7B7FC386108E0FFF736
:101E7000B3FC02463B69D31A022B01D90323A8E124
:101E80002B4B1B6803F00203002BF0D0284B1B6880
:101E900023F0F8027B681B69DB00254913430B60C4
:101EA00015E0244B00221A60FFF796FC386108E029
:101EB000FFF792FC02463B69D31A022B01D9032398
:101EC00087E11B4B1B6803F00203002BF0D17B68FA
:101ED0001B6803F00803002B36D07B685B69002B7E
:101EE00016D0154B01221A60FFF776FC386108E026
:101EF000FFF772FC02463B69D31A022B01D9032378
:101F000067E10B4B5B6F03F00203002BF0D01BE08B
:101F1000094B00221A60FFF75FFC38610EE0FFF703
:101F20005BFC02463B69D31A022B07D9032350E11D
:101F30000038024000004742800E4742884B5B6FEA
:101F400003F00203002BEAD17B681B6803F0040353
:101F5000002B00F097800023FB75814B1B6C03F076
:101F60008053002B0FD10023BB607D4B1B6C7C4A40
:101F700043F0805313647A4B1B6C03F08053BB60B7
:101F8000BB680123FB75774B1B6803F48073002B40
:101F900018D1744B1B68734A43F480731360FFF7C6
:101FA0001BFC386108E0FFF717FC02463B69D31AB7
:101FB000022B01D903230CE16A4B1B6803F48073E5
:101FC000002BF0D07B689B68012B06D1644B1B6F04
:101FD000634A43F0010313671CE07B689B68052B91
:101FE0000CD15F4B1B6F5E4A43F0040313675C4BDD
:101FF0001B6F5B4A43F0010313670BE0584B1B6FE9
:10200000574A23F001031367554B1B6F544A23F0C3
:10201000040313677B689B68002B15D0FFF7DCFB7C
:1020200038610AE0FFF7D8FB02463B69D31A41F258
:102030008832934201D90323CBE0494B1B6F03F055
:102040000203002BEED014E0FFF7C6FB38610AE074
:10205000FFF7C2FB02463B69D31A41F28832934232
:1020600001D90323B5E03E4B1B6F03F00203002BA5
:10207000EED1FB7D012B05D1394B1B6C384A23F087
:10208000805313647B689B69002B00F0A180344B64
:102090009B6803F00C03082B5CD07B689B69022BC8
:1020A00041D1314B00221A60FFF796FB386108E0FE
:1020B000FFF792FB02463B69D31A022B01D9032397
:1020C00087E0274B1B6803F00073002BF0D17B687F
:1020D000DA697B681B6A1A437B685B6A9B011A4357
:1020E0007B689B6A5B08013B1B041A437B68DB6AC5
:1020F0001B061B4913434B601B4B01221A60FFF761
:102100006BFB386108E0FFF767FB02463B69D31AB7
:10211000022B01D903235CE0114B1B6803F0007311
:10212000002BF0D054E0104B00221A60FFF754FB54
:10213000386108E0FFF750FB02463B69D31A022BD7
:1021400001D9032345E0064B1B6803F00073002B05
:10215000F0D13DE07B689B69012B07D1012338E07A
:102160000038024000700040600047421B4B5B6833
:10217000FB607B689B69012B28D0FB6803F480021D
:102180007B68DB699A4221D1FB6803F03F027B68E0
:102190001B6A9A421AD1FA6847F6C07313407A68EC
:1021A000526A9201934211D1FB6803F440327B687A
:1021B0009B6A5B08013B1B049A4207D1FB6803F052
:1021C00070627B68DB6A1B069A4201D0012300E043
:1021D000002318461837BD4680BD00BF00380240B6
:1021E00080B584B000AF786039607B68002B01D186
:1021F0000123CCE0684B1B6803F007033A689A425E
:102200000CD9654B3A68D2B21A70634B1B6803F065
:1022100007033A689A4201D00123B8E07B681B6843
:1022200003F00203002B20D07B681B6803F004033B
:10223000002B05D0594B9B68584A43F4E0539360F8
:102240007B681B6803F00803002B05D0534B9B6889
:10225000524A43F460439360504B9B6823F0F00272
:102260007B689B684D4913438B607B681B6803F058
:102270000103002B44D07B685B68012B07D1474BDF
:102280001B6803F40033002B19D101237FE07B6826
:102290005B68022B03D07B685B68032B07D13F4B45
:1022A0001B6803F00073002B09D101236FE03B4B47
:1022B0001B6803F00203002B01D1012367E0374BB9
:1022C0009B6823F003027B685B68344913438B608F
:1022D000FFF782FAF8600AE0FFF77EFA0246FB6831
:1022E000D31A41F28832934201D903234FE02B4B9A
:1022F0009B6803F00C027B685B689B009A42EBD101
:10230000254B1B6803F007033A689A420CD2224B14
:102310003A68D2B21A70204B1B6803F007033A6880
:102320009A4201D0012332E07B681B6803F004036A
:10233000002B08D0194B9B6823F4E0527B68DB68C4
:10234000164913438B607B681B6803F00803002B5E
:1023500009D0124B9B6823F460427B681B69DB0049
:102360000E4913438B6000F021F802460B4B9B682B
:102370001B0903F00F030A49CB5C22FA03F3094A55
:102380001360094B1B681846FFF704F90023184631
:102390001037BD4680BD00BF003C024000380240FF
:1023A0003448000800000020040000202DE9B04F50
:1023B00090B000AF00237B630023FB6300233B63EB
:1023C0000023BB63594B9B6803F00C03082B0DD013
:1023D000082B00F2A180002B02D0042B03D09BE03D
:1023E000534BBB639BE0534BBB6398E04F4B5B6825
:1023F00003F03F037B634D4B5B6803F48003002BCA
:1024000028D04A4B5B689B0900223B627A623B6A98
:10241000C3F308000021474B03FB01F2002300FB3C
:1024200003F31344434AA0FB0212FA620A46BA625B
:10243000FA6A1344FB627B6B0022BB61FA61D7E945
:102440000623D7E90A01FEF7B9FA02460B461346FE
:10245000FB6353E0354B5B689B0900223B617A616B
:102460003B69C3F3080A4FF0000B52465B464FF03E
:1024700000004FF00001590141EAD26150010246CB
:102480000B46B2EB0A0863EB0B094FF000024FF06A
:1024900000034FEA891343EA98634FEA8812B2EBCC
:1024A000080463EB09054FF000024FF00003EB0056
:1024B00043EA5473E20014461D4614EB0A033B60E2
:1024C00045EB0B037B604FF000024FF00003D7E9B0
:1024D000004529468B02214643EA915321468A0250
:1024E000104619467B6B0022BB60FA60D7E90223D5
:1024F000FEF764FA02460B461346FB630B4B5B6820
:102500001B0C03F0030301335B003B63FA6B3B6B73
:10251000B2FBF3F3BB6302E0054BBB6300BFBB6BD5
:1025200018464037BD46BDE8B08F00BF00380240B6
:102530000024F40040787D0180B400AF034B1B6899
:102540001846BD465DF8047B704700BF00000020C0
:1025500080B500AFFFF7F0FF0246054B9B689B0A72
:1025600003F007030349CB5C22FA03F3184680BD4E
:10257000003802404448000880B483B000AF78605F
:1025800039607B680F221A60124B9B6803F00302CC
:102590007B685A600F4B9B6803F0F0027B689A607F
:1025A0000C4B9B6803F4E0527B68DA60094B9B6834
:1025B000DB0803F4E0527B681A61074B1B6803F0E9
:1025C00007023B681A6000BF0C37BD465DF8047B0C
:1025D000704700BF00380240003C024080B582B026
:1025E00000AF78607B68002B01D1012341E07B685C
:1025F00093F83D30DBB2002B06D17B68002283F8D4
:102600003C20786800F039F87B68022283F83D208E
:102610007B681A687B6804331946104600F0F2FBA9
:102620007B68012283F846207B68012283F83E20E4
:102630007B68012283F83F207B68012283F84020D9
:102640007B68012283F841207B68012283F84220C5
:102650007B68012283F843207B68012283F84420B1
:102660007B68012283F845207B68012283F83D20A6
:10267000002318460837BD4680BD80B483B000AF44
:10268000786000BF0C37BD465DF8047B70470000E2
:1026900080B485B000AF78607B6893F83D30DBB2E2
:1026A000012B01D0012344E07B68022283F83D2006
:1026B0007B681B68DA687B681B6842F00102DA609D
:1026C0007B681B681E4A934218D07B681B68B3F175
:1026D000804F13D07B681B681A4A93420ED07B68E8
:1026E0001B68194A934209D07B681B68174A9342BA
:1026F00004D07B681B68164A934211D17B681B6823
:102700009B6803F00703FB60FB68062B10D07B6817
:102710001B681A687B681B6842F001021A6007E0B8
:102720007B681B681A687B681B6842F001021A60AC
:10273000002318461437BD465DF8047B704700BF80
:10274000000001400004004000080040000C004070
:102750000040014080B582B000AF78607B68002BFC
:1027600001D1012341E07B6893F83D30DBB2002BBF
:1027700006D17B68002283F83C207868FEF77EFE55
:102780007B68022283F83D207B681A687B680433EB
:102790001946104600F036FB7B68012283F846207C
:1027A0007B68012283F83E207B68012283F83F206A
:1027B0007B68012283F840207B68012283F8412056
:1027C0007B68012283F842207B68012283F8432042
:1027D0007B68012283F844207B68012283F845202E
:1027E0007B68012283F83D20002318460837BD4648
:1027F00080BD000080B584B000AF786039600023F0
:10280000FB733B68002B04D17B6893F83E30DBB24E
:1028100013E03B68042B04D17B6893F83F30DBB2B4
:102820000BE03B68082B04D17B6893F84030DBB2A7
:1028300003E07B6893F84130DBB2BB733B68002B4D
:1028400004D17B6893F84230DBB213E03B68042B81
:1028500004D17B6893F84330DBB20BE03B68082B74
:1028600004D17B6893F84430DBB203E07B6893F8D3
:102870004530DBB27B73BB7B012B02D17B7B012B11
:1028800001D00123C2E03B68002B04D17B68022207
:1028900083F83E2013E03B68042B04D17B680222BE
:1028A00083F83F200BE03B68082B04D17B680222B1
:1028B00083F8402003E07B68022283F841203B68D4
:1028C000002B04D17B68022283F8422013E03B688E
:1028D000042B04D17B68022283F843200BE03B6881
:1028E000082B04D17B68022283F8442003E07B6834
:1028F000022283F845203B680C2B41D801A252F8F4
:1029000023F000BF39290008812900088129000827
:10291000812900084B290008812900088129000825
:10292000812900085D290008812900088129000803
:10293000812900086F2900087B681B68DA687B68BA
:102940001B6842F00202DA601DE07B681B68DA68EF
:102950007B681B6842F00402DA6014E07B681B6845
:10296000DA687B681B6842F00802DA600BE07B687B
:102970001B68DA687B681B6842F01002DA6002E0CC
:102980000123FB7300BFFB7B002B3ED17B681B68E0
:1029900001223968184600F0DFFB7B681B681D4A7E
:1029A000934218D07B681B68B3F1804F13D07B68CB
:1029B0001B68194A93420ED07B681B68174A9342E2
:1029C00009D07B681B68164A934204D07B681B6859
:1029D000144A934211D17B681B689B6803F007037C
:1029E000BB60BB68062B10D07B681B681A687B68CD
:1029F0001B6842F001021A6007E07B681B681A68D6
:102A00007B681B6842F001021A60FB7B1846103796
:102A1000BD4680BD000001400004004000080040A9
:102A2000000C00400040014080B584B000AF7860E9
:102A30007B681B68DB68FB607B681B681B69BB608D
:102A4000BB6803F00203002B20D0FB6803F00203F5
:102A5000002B1BD07B681B686FF002021A617B6839
:102A600001221A777B681B689B6903F00303002B24
:102A700003D07868FEF778F905E0786800F0A4F9EB
:102A8000786800F0ABF97B6800221A77BB6803F026
:102A90000403002B20D0FB6803F00403002B1BD0A1
:102AA0007B681B686FF004021A617B6802221A7748
:102AB0007B681B689B6903F44073002B03D0786824
:102AC000FEF752F905E0786800F07EF9786800F0CA
:102AD00085F97B6800221A77BB6803F00803002B96
:102AE00020D0FB6803F00803002B1BD07B681B6819
:102AF0006FF008021A617B6804221A777B681B68F2
:102B0000DB6903F00303002B03D07868FEF72CF990
:102B100005E0786800F058F9786800F05FF97B68A4
:102B200000221A77BB6803F01003002B20D0FB684B
:102B300003F01003002B1BD07B681B686FF01002A2
:102B40001A617B6808221A777B681B68DB6903F4CB
:102B50004073002B03D07868FEF706F905E078682B
:102B600000F032F9786800F039F97B6800221A77B2
:102B7000BB6803F00103002B0CD0FB6803F00103DA
:102B8000002B07D07B681B686FF001021A61786820
:102B9000FEF730FCBB6803F08003002B0CD0FB6811
:102BA00003F08003002B07D07B681B686FF0800266
:102BB0001A61786800F06EFBBB6803F04003002BDD
:102BC0000CD0FB6803F04003002B07D07B681B6828
:102BD0006FF040021A61786800F00AF9BB6803F0F0
:102BE0002003002B0CD0FB6803F02003002B07D040
:102BF0007B681B686FF020021A61786800F040FB68
:102C000000BF1037BD4680BD80B586B000AFF8600C
:102C1000B9607A600023FB75FB6893F83C30012BA8
:102C200001D1022388E0FB68012283F83C207B6805
:102C3000002B1BD1FB681868BB681968BB685A6811
:102C4000BB68DB6800F06AF9FB681B689A69FB687F
:102C50001B6822F00C029A61FB681B689969BB68CB
:102C60009A68FB681B680A439A6160E07B68042BE2
:102C70001CD1FB681868BB681968BB685A68BB68D8
:102C8000DB6800F0B3F9FB681B689A69FB681B6896
:102C900022F440629A61FB681B689969BB689B6873
:102CA0001A02FB681B680A439A6140E07B68082BA4
:102CB0001BD1FB681868BB681968BB685A68BB6899
:102CC000DB6800F0D0F9FB681B68DA69FB681B68F9
:102CD00022F00C02DA61FB681B68D969BB689A684C
:102CE000FB681B680A43DA6121E07B680C2B1CD16E
:102CF000FB681868BB681968BB685A68BB68DB6802
:102D000000F0EDF9FB681B68DA69FB681B6822F4C8
:102D10004062DA61FB681B68D969BB689B681A026C
:102D2000FB681B680A43DA6101E00123FB75FB685D
:102D3000002283F83C20FB7D18461837BD4680BD35
:102D400080B485B000AF786039600023FB603B68D9
:102D50000C2B31D801A252F823F000BF912D0008AE
:102D6000B92D0008B92D0008B92D00089B2D0008C9
:102D7000B92D0008B92D0008B92D0008A52D0008AF
:102D8000B92D0008B92D0008B92D0008AF2D000895
:102D90007B681B685B6BFB600FE07B681B689B6B51
:102DA000FB600AE07B681B68DB6BFB6005E07B680F
:102DB0001B681B6CFB6000E000BFFB681846143703
:102DC000BD465DF8047B704780B483B000AF786087
:102DD00000BF0C37BD465DF8047B704780B483B0FC
:102DE00000AF786000BF0C37BD465DF8047B7047CC
:102DF00080B483B000AF786000BF0C37BD465DF88B
:102E0000047B704780B485B000AF786039607B6820
:102E10001B68FB607B683A4A93420FD07B68B3F132
:102E2000804F0BD07B68374A934207D07B68364A85
:102E3000934203D07B68354A934208D1FB6823F064
:102E40007003FB603B685B68FA681343FB607B6858
:102E50002B4A93421BD07B68B3F1804F17D07B681D
:102E6000284A934213D07B68274A93420FD07B684D
:102E7000264A93420BD07B68254A934207D07B6851
:102E8000244A934203D07B68234A934208D1FB68CB
:102E900023F44073FB603B68DB68FA681343FB6014
:102EA000FB6823F080023B685B691343FB607B682F
:102EB000FA681A603B689A687B68DA623B681A684D
:102EC0007B689A627B680E4A934203D13B681A6919
:102ED0007B681A637B6801225A617B681B6903F077
:102EE0000103012B05D17B681B6923F001027B687C
:102EF0001A6100BF1437BD465DF8047B704700BF00
:102F0000000001400004004000080040000C0040A8
:102F100000400140004401400048014080B487B0B7
:102F200000AFF860B9607A603B60FB681B6A3B6188
:102F3000FB681B6A23F00102FB681A62FB689B694D
:102F40007B61FB68244A934213D0FB68B3F1804F46
:102F50000FD0FB68214A93420BD0FB68204A934272
:102F600007D0FB681F4A934203D0FB681E4A934276
:102F700001D1012300E00023002B08D07B6923F05E
:102F800003037B617A697B6813437B6103E07B69A0
:102F900043F001037B617B6923F0F0037B613B68B5
:102FA0001B01DBB27A6913437B613B6923F00A039F
:102FB0003B61BB6803F00A033A6913433B61FB685A
:102FC0007A699A61FB683A691A6200BF1C37BD468C
:102FD0005DF8047B704700BF000001400004004022
:102FE00000080040000C00400040014080B487B061
:102FF00000AFF860B9607A603B60FB681B6A7B6178
:10300000FB681B6A23F01002FB681A62FB689B696D
:103010003B613B6923F440733B617B681B023A6967
:1030200013433B613B6923F470433B613B681B03E3
:103030009BB23A6913433B617B6923F0A0037B6138
:10304000BB681B0103F0A0037A6913437B61FB6833
:103050003A699A61FB687A691A6200BF1C37BD46FB
:103060005DF8047B704780B487B000AFF860B9604A
:103070007A603B60FB681B6A7B61FB681B6A23F418
:103080008072FB681A62FB68DB693B613B6923F075
:1030900003033B613A697B6813433B613B6923F05F
:1030A000F0033B613B681B01DBB23A6913433B61B0
:1030B0007B6923F420637B61BB681B0203F42063FC
:1030C0007A6913437B61FB683A69DA61FB687A6964
:1030D0001A6200BF1C37BD465DF8047B704780B4A0
:1030E00087B000AFF860B9607A603B60FB681B6A2C
:1030F0007B61FB681B6A23F48052FB681A62FB68E1
:10310000DB693B613B6923F440733B617B681B02D5
:103110003A6913433B613B6923F470433B613B686D
:103120001B039BB23A6913433B617B6923F4204341
:103130007B61BB681B0303F420437A6913437B6103
:10314000FB683A69DA61FB687A691A6200BF1C376A
:10315000BD465DF8047B704780B487B000AFF8606F
:10316000B9607A60BB6803F01F03012202FA03F31F
:103170007B61FB681A6A7B69DB431A40FB681A6251
:10318000FB681A6ABB6803F01F03796801FA03F34E
:103190001A43FB681A6200BF1C37BD465DF8047B0A
:1031A0007047000080B485B000AF786039607B68FC
:1031B00093F83C30012B01D1022350E07B680122BF
:1031C00083F83C207B68022283F83D207B681B68E3
:1031D0005B68FB607B681B689B68BB60FB6823F0D7
:1031E0007003FB603B681B68FA681343FB607B68F5
:1031F0001B68FA685A607B681B681C4A934218D0A7
:103200007B681B68B3F1804F13D07B681B68184A3A
:1032100093420ED07B681B68164A934209D07B68A4
:103220001B68154A934204D07B681B68134A93427B
:103230000CD1BB6823F08003BB603B685B68BA6855
:103240001343BB607B681B68BA689A607B68012285
:1032500083F83D207B68002283F83C200023184639
:103260001437BD465DF8047B704700BF0000014085
:103270000004004000080040000C004000400140F5
:1032800080B483B000AF786000BF0C37BD465DF8F6
:10329000047B704780B483B000AF786000BF0C3708
:1032A000BD465DF8047B704780B485B000AF03462F
:1032B000FB800023FB60B7F90630842B05D0B7F9FB
:1032C0000620FB6813440333FB60FB681846143781
:1032D000BD465DF8047B704780B500AF00F0DEFAB4
:1032E0000023184680BDF0B589B004AF786039601E
:1032F0007B685B69002B20D07B689B69002B1CD00E
:103300007B685C687B681D687B681E697B68B3F9B5
:1033100008301846FFF7C8FF01467B685B697A688A
:1033200092690292019300913B68324629462046F9
:1033300000F0EDF80346FB601CE07B685C687B688E
:103340001D687B681B699EB27B68B3F9083018461C
:10335000FFF7AAFF024607F10C03019300923B68B6
:1033600032462946204600F02FF90346012B01D0B2
:10337000002300E0FB6818461437BD46F0BD80B559
:1033800084B000AF78607B68FB60FB68002B01D0E5
:10339000FB6800E00123184600F04CFA00231846B1
:1033A0001037BD4680BD80B483B000AF78607B68C5
:1033B00003F108027B685A607B684FF0FF329A6025
:1033C0007B6803F108027B68DA607B6803F108021E
:1033D0007B681A617B6800221A6000BF0C37BD460B
:1033E0005DF8047B704780B483B000AF78607B6881
:1033F00000221A6100BF0C37BD465DF8047B7047A0
:1034000080B485B000AF786039607B685B68FB6032
:103410003B68FA685A60FB689A683B689A60FB6888
:103420009B683A685A60FB683A689A603B687A68B9
:103430001A617B681B685A1C7B681A6000BF1437CE
:10344000BD465DF8047B704780B485B000AF7860FE
:1034500039603B681B68BB60BB68B3F1FF3F03D1B9
:103460007B681B69FB600CE07B680833FB6002E053
:10347000FB685B68FB60FB685B681B68BA689A4224
:10348000F6D2FB685A683B685A603B685B683A68EA
:103490009A603B68FA689A60FB683A685A603B68D1
:1034A0007A681A617B681B685A1C7B681A6000BFC7
:1034B0001437BD465DF8047B704780B485B000AF1B
:1034C00078607B681B69FB607B685B687A689268E0
:1034D0009A607B689B687A6852685A60FB685B6890
:1034E0007A689A4203D17B689A68FB685A607B6865
:1034F00000221A61FB681B685A1EFB681A60FB6891
:103500001B6818461437BD465DF8047B704780B5CC
:103510008EB004AFF860B9607A603B607B6B002BC3
:103520000AD14FF0500383F31188BFF36F8FBFF3BD
:103530004F8F3B6200BFFEE7BB6B002B0AD14FF001
:10354000500383F31188BFF36F8FBFF34F8FFB617D
:1035500000BFFEE754233B613B69542B0AD04FF078
:10356000500383F31188BFF36F8FBFF34F8FBB619D
:1035700000BFFEE73B69BB6B002B1ED07B6B002BB3
:103580001BD0BB6B7B627B6A7A6B1A637B6A0222FD
:1035900083F85120002303937B6A029307F11403FD
:1035A00001933B6B00933B687A68B968F86800F058
:1035B00050F8786A00F0D4F801E000237B617B6961
:1035C00018462837BD4680BD80B58CB004AFF86082
:1035D000B9603B601346FB80FB889B00184600F0F7
:1035E000C3FE78617B69002B0ED0542000F0BCFE36
:1035F000F861FB69002B03D0FB697A691A6305E067
:10360000786900F07DFF01E00023FB61FB69002B7E
:1036100017D0FB69002283F85120FA880023039316
:10362000FB690293FB6A0193BB6A00933B68B9682C
:10363000F86800F00EF8F86900F092F80123BB6119
:1036400002E04FF0FF33BB61BB6918462037BD462F
:1036500080BD80B588B000AFF860B9607A603B602B
:103660003B6B1A6B7B6803F18043013B9B00134467
:10367000BB61BB6923F00703BB61BB6903F00703B0
:10368000002B0AD04FF0500383F31188BFF36F8FE4
:10369000BFF34F8F7B6100BFFEE7BB68002B1FD0DD
:1036A0000023FB6112E0BA68FB69134419783A6B96
:1036B000FB69134434330A461A70BA68FB69134431
:1036C0001B78002B06D0FB690133FB61FB690F2BD4
:1036D000E9D900E000BF3B6B002283F8432003E000
:1036E0003B6B002283F83420BB6A062B01D90623EA
:1036F000BB623B6BBA6ADA623B6BBA6A5A643B6B79
:1037000000229A643B6B04331846FFF76CFE3B6B58
:1037100018331846FFF767FE3B6B3A6B1A61BB6ABA
:10372000C3F107023B6B9A613B6B3A6B5A623B6B8E
:103730000022DA643B6B002283F850203A68F96873
:10374000B86900F005FC02463B6B1A60FB6A002B6F
:1037500002D0FB6A3A6B1A6000BF2037BD4680BDBD
:1037600080B582B000AF786000F01CFD2A4B1B686A
:103770000133294A1360294B1B68002B09D1274AC2
:103780007B681360244B1B68012B10D100F0BCFA3E
:103790000DE0234B1B68002B09D1204B1B68DA6A14
:1037A0007B68DB6A9A4202D81C4A7B6813601D4B17
:1037B0001B6801331B4A13607B68DB6A01229A4055
:1037C000194B1B681343184A13607B68DA6A134667
:1037D0009B0013449B00154A1A447B680433194626
:1037E0001046FFF70DFE00F00DFD0D4B1B68002B82
:1037F0000ED00A4B1B68DA6A7B68DB6A9A4207D2F2
:103800000B4B4FF080521A60BFF34F8FBFF36F8F97
:1038100000BF0837BD4680BD880400208803002013
:1038200094040020A4040020900400208C030020B5
:1038300004ED00E080B584B000AF78600023FB6049
:103840007B68002B17D0134B1B68002B0AD04FF05E
:10385000500383F31188BFF36F8FBFF34F8FBB60AB
:1038600000BFFEE700F07AF80021786800F00AFB5C
:1038700000F082F8F860FB68002B07D1064B4FF090
:1038800080521A60BFF34F8FBFF36F8F00BF1037A6
:10389000BD4680BDB004002004ED00E080B58AB0D4
:1038A00004AF0023BB6000237B603A46391D07F15B
:1038B00008031846FDF73CFA39687B68BA6802923B
:1038C00001930023009300230A461E491E48FFF778
:1038D0001EFE03461D4A13601C4B1B68002B02D0C2
:1038E00001237B6101E000237B617B69012B16D101
:1038F0004FF0500383F31188BFF36F8FBFF34F8FE7
:103900003B6100BF124B4FF0FF321A60114B012296
:103910001A60114B00221A6000F0A2FB0EE07B69D6
:10392000B3F1FF3F0AD14FF0500383F31188BFF387
:103930006F8FBFF34F8FFB6000BFFEE700BF1837EC
:10394000BD4680BD2C480008D93C0008AC040020CE
:10395000A8040020940400208C04002080B400AF50
:10396000044B1B680133034A136000BFBD465DF87A
:10397000047B7047B004002080B584B000AF002302
:10398000FB600023BB60414B1B68002B0AD14FF04A
:10399000500383F31188BFF36F8FBFF34F8F3B60EA
:1039A00000BFFEE700F0FEFB384B1B68013B374AC7
:1039B0001360364B1B68002B61D1354B1B68002B05
:1039C0005DD02EE0334BDB68DB68FB60FB681833AF
:1039D0001846FFF772FDFB6804331846FFF76DFDCC
:1039E000FB68DB6A01229A402B4B1B6813432A4A6F
:1039F0001360FB68DA6A13469B0013449B00274A56
:103A00001A44FB68043319461046FFF7F9FCFB68BB
:103A1000DA6A234B1B68DB6A9A4202D3214B0122EC
:103A20001A601C4B1B68002BCCD1FB68002B01D00B
:103A300000F008FA1C4B1B687B607B68002B10D0E1
:103A400000F036F80346002B02D0164B01221A6014
:103A50007B68013B7B607B68002BF1D1124B00221D
:103A60001A60104B1B68002B09D00123BB600F4B61
:103A70004FF080521A60BFF34F8FBFF36F8F00F08B
:103A8000C1FBBB6818461037BD4680BDB00400209E
:103A90008804002048040020900400208C030020AB
:103AA000880300209C0400209804002004ED00E01E
:103AB00080B586B000AF00237B614E4B1B68002BA6
:103AC00040F08E804C4B1B6801333B614A4A3B6996
:103AD00013603B69002B20D1484B1B681B68002BEF
:103AE0000AD04FF0500383F31188BFF36F8FBFF3F9
:103AF0004F8F3B6000BFFEE7404B1B68FB60404BB5
:103B00001B683E4A13603E4AFB6813603D4B1B68CE
:103B100001333C4A136000F095F93B4B1B683A694E
:103B20009A4248D3354B1B681B68002B04D1364B97
:103B30004FF0FF321A603EE0304B1B68DB68DB68F9
:103B4000BB60BB685B687B603A697B689A4203D262
:103B50002D4A7B6813602EE0BB6804331846FFF7DC
:103B6000ACFCBB689B6A002B04D0BB6818331846BA
:103B7000FFF7A3FCBB68DB6A01229A40234B1B685A
:103B80001343224A1360BB68DA6A13469B0013444E
:103B90009B001F4A1A44BB68043319461046FFF7BE
:103BA0002FFCBB68DA6A1B4B1B68DB6A9A42B9D3ED
:103BB00001237B61B6E7174B1B68DA6A1449134689
:103BC0009B0013449B000B441B68012B01D901236C
:103BD0007B61114B1B68002B07D001237B6104E044
:103BE0000E4B1B6801330D4A13607B69184618376A
:103BF000BD4680BDB00400208C040020400400209D
:103C000044040020A0040020A80400209004002008
:103C10008C030020880300209C04002098040020CE
:103C200080B487B000AF274B1B68002B03D0264B16
:103C300001221A603FE0244B00221A60234B1B68CC
:103C4000FB60FB68B3FA83F3FB72FB7AC3F11F03DB
:103C50007B611F497A6913469B0013449B000B4408
:103C60001B68002B0AD14FF0500383F31188BFF378
:103C70006F8FBFF34F8F7B6000BFFEE77A691346FB
:103C80009B0013449B00124A13443B613B695B68F1
:103C90005A683B695A603B695A683B6908339A42E3
:103CA00004D13B695B685A683B695A603B695B6851
:103CB000DB68084A136000BF1C37BD465DF8047B13
:103CC000704700BFB00400209C0400209004002036
:103CD0008C0300208803002080B582B000AF78609C
:103CE00000F052F8064B1B68012BF9D9054B4FF039
:103CF00080521A60BFF34F8FBFF36F8FF0E700BFA2
:103D00008C03002004ED00E080B582B000AF0023FA
:103D10007B600CE07A6813469B0013449B00124AB8
:103D200013441846FFF73FFB7B6801337B607B68D9
:103D3000062BEFD90D48FFF736FB0D48FFF733FB95
:103D40000C48FFF730FB0C48FFF72DFB0B48FFF743
:103D50002AFB0B4B054A1A600A4B054A1A6000BF42
:103D60000837BD4680BD00BF8C030020180400202A
:103D70002C040020480400205C040020740400206F
:103D8000400400204404002080B582B000AF19E058
:103D900000F008FA104BDB68DB687B607B6804335B
:103DA0001846FFF78AFB0D4B1B68013B0B4A13605B
:103DB0000B4B1B68013B0A4A136000F023FA78683A
:103DC00000F010F8064B1B68002BE1D100BF00BFCC
:103DD0000837BD4680BD00BF5C0400208804002079
:103DE0007004002080B584B000AF78607B6893F8E1
:103DF0005130002B08D17B681B6B184600F080FB0C
:103E0000786800F07DFB18E07B6893F85130012B57
:103E100003D1786800F074FB0FE07B6893F85130B1
:103E2000022B0AD04FF0500383F31188BFF36F8F3A
:103E3000BFF34F8FFB6000BFFEE700BF1037BD46EA
:103E400080BD000080B483B000AF0C4B1B681B68C2
:103E5000002B04D10A4B4FF0FF321A6008E0074BE9
:103E60001B68DB68DB687B607B685B68044A136007
:103E700000BF0C37BD465DF8047B7047400400204E
:103E8000A804002080B584B000AF78603960294B69
:103E90001B68FB60284B1B6804331846FFF70DFBBB
:103EA0000346002B0BD1244B1B68DB6A012202FA6C
:103EB00003F3DA43214B1B681340204A13607B68ED
:103EC000B3F1FF3F0AD13B68002B07D01A4B1B68A8
:103ED000043319461A48FFF793FA26E0FA687B681C
:103EE0001344BB60144B1B68BA685A60BA68FB681D
:103EF0009A4209D2134B1A680F4B1B6804331946B8
:103F00001046FFF7A1FA10E00F4B1A680A4B1B6826
:103F1000043319461046FFF797FA0C4B1B68BA6832
:103F20009A4202D2094ABB68136000BF1037BD46EF
:103F300080BD00BF8C040020880300209004002076
:103F4000740400204404002040040020A804002041
:103F500080B485B000AFF860B9607A60FB68043B5C
:103F6000FB60FB684FF080721A60FB68043BFB60EB
:103F7000BB6823F00102FB681A60FB68043BFB602E
:103F80000C4AFB681A60FB68143BFB607A68FB68AC
:103F90001A60FB68043BFB60FB686FF002021A606A
:103FA000FB68203BFB60FB6818461437BD465DF894
:103FB000047B7047B93F000880B485B000AF002390
:103FC0007B60124B1B68B3F1FF3F0AD04FF05003E8
:103FD00083F31188BFF36F8FBFF34F8FFB6000BF78
:103FE000FEE74FF0500383F31188BFF36F8FBFF3E9
:103FF0004F8FBB6000BF00BF7B68002BFCD000BFB1
:1040000000BF1437BD465DF8047B70470C000020EC
:10401000074B19680868B0E8F04F80F30988BFF3D0
:104020006F8F4FF0000080F311887047AFF300806E
:104030008803002000BF00BF08480068006880F3C4
:1040400008884FF0000080F3148862B661B6BFF3B1
:104050004F8FBFF36F8F00DF00BF00BF08ED00E0A0
:1040600080B586B000AF464B1B68464A93420AD1E2
:104070004FF0500383F31188BFF36F8FBFF34F8F5F
:104080003B6100BFFEE73E4B1B683F4A93420AD1AB
:104090004FF0500383F31188BFF36F8FBFF34F8F3F
:1040A000FB6000BFFEE7394B7B617B691B78DBB2AD
:1040B0007B607B69FF221A707B691B78DBB2FB7027
:1040C000FB78DBB203F05003DAB2314B1A70314B9C
:1040D00007221A6009E02F4B1B68013B2D4A136031
:1040E000FB78DBB25B00DBB2FB70FB78DBB203F08A
:1040F0008003802BEFD0274B1B68C3F10703042BF1
:104100000AD04FF0500383F31188BFF36F8FBFF3D2
:104110004F8FBB6000BFFEE71E4B1B681B021D4A92
:1041200013601C4B1B6803F4E0631A4A13607B683E
:10413000DAB27B691A70184B1B68174A43F4700394
:104140001360154B1B68144A43F07043136000F072
:10415000DDF8124B00221A6000F0FCF8104B1B68CF
:104160000F4A43F040431360FFF766FFFFF758FD27
:10417000FFF722FF002318461837BD4680BD00BF59
:1041800000ED00E071C20F4170C20F4100E400E099
:10419000B4040020B804002020ED00E00C00002052
:1041A00034EF00E080B483B000AF4FF0500383F3EE
:1041B0001188BFF36F8FBFF34F8F7B6000BF0F4B32
:1041C0001B6801330D4A13600C4B1B68012B0FD188
:1041D0000B4B1B68DBB2002B0AD04FF0500383F36C
:1041E0001188BFF36F8FBFF34F8F3B6000BFFEE7B7
:1041F00000BF0C37BD465DF8047B70470C00002003
:1042000004ED00E080B483B000AF124B1B68002BBC
:104210000AD14FF0500383F31188BFF36F8FBFF3C0
:104220004F8F7B6000BFFEE70A4B1B68013B094ACA
:104230001360084B1B68002B05D100233B603B68D3
:1042400083F3118800BF00BF0C37BD465DF8047BC7
:10425000704700BF0C0000200000000000000000BC
:10426000EFF30980BFF36F8F154B1A681EF0100F24
:1042700008BF20ED108A20E9F04F10602DE90900F9
:104280004FF0500080F31188BFF34F8FBFF36F8F53
:10429000FFF7C6FC4FF0000080F3118809BC1968D5
:1042A0000868B0E8F04F1EF0100F08BFB0EC108A9D
:1042B00080F30988BFF36F8F704700BFAFF30080B2
:1042C0008803002000BF00BF80B582B000AF4FF070
:1042D000500383F31188BFF36F8FBFF34F8F7B6061
:1042E00000BFFFF7E5FB0346002B03D0064B4FF062
:1042F00080521A6000233B603B6883F3118800BF43
:1043000000BF0837BD4680BD04ED00E080B400AFBB
:104310000B4B00221A600B4B00221A600A4B1B68E1
:104320000A4AA2FB03239B09094A013B1360044B81
:1043300007221A6000BFBD465DF8047B704700BFCE
:1043400010E000E018E000E000000020D34D621013
:1043500014E000E0DFF80C00016841F47001016036
:10436000704700BF88ED00E080B58AB000AF78608C
:104370000023FB61FFF7F2FA5B4B1B68002B01D1B6
:1043800000F020F9594B1A687B681340002B40F06D
:1043900093807B68002B1DD008227B6813447B60D0
:1043A0007B6803F00703002B14D07B6823F007031E
:1043B00008337B607B6803F00703002B0AD04FF0C3
:1043C000500383F31188BFF36F8FBFF34F8F7B616F
:1043D00000BFFEE77B68002B6ED0454B1B687A68F8
:1043E0009A4269D8434B3B62424B1B687B6204E0B4
:1043F0007B6A3B627B6A1B687B627B6A5B687A686C
:104400009A4203D97B6A1B68002BF1D1364B1B689B
:104410007A6A9A4250D03B6A1B6808221344FB61B7
:104420007B6A1A683B6A1A607B6A5A687B68D21A90
:1044300008235B009A421FD97A6A7B681344BB61E8
:10444000BB6903F00703002B0AD04FF0500383F33E
:104450001188BFF36F8FBFF34F8F3B6100BFFEE743
:104460007B6A5A687B68D21ABB695A607B6A7A6831
:104470005A60B86900F008F91D4B1A687B6A5B68DE
:10448000D31A1B4A13601A4B1A681B4B1B689A42BB
:1044900003D2174B1B68184A13607B6A5A68134B88
:1044A0001B681A437B6A5A607B6A00221A60134BAE
:1044B0001B680133114A1360FFF75EFAFB6903F0D2
:1044C0000703002B0AD04FF0500383F31188BFF38A
:1044D0006F8FBFF34F8FFB6000BFFEE7FB6918468D
:1044E0002837BD4680BD00BFC4400020D840002012
:1044F000C8400020BC400020CC400020D04000201C
:1045000080B586B000AF78607B687B617B68002BEC
:104510004DD008235B427A6913447B617B693B6120
:104520003B695A68244B1B681340002B0AD14FF09B
:10453000500383F31188BFF36F8FBFF34F8FFB607E
:1045400000BFFEE73B691B68002B0AD04FF0500309
:1045500083F31188BFF36F8FBFF34F8FBB6000BF32
:10456000FEE73B695A68144B1B681340002B1ED0B2
:104570003B691B68002B1AD13B695A680E4B1B68BC
:10458000DB431A403B695A60FFF7E8F93B695A6818
:104590000A4B1B681344094A1360386900F074F829
:1045A000074B1B680133064A1360FFF7E5F900BFAC
:1045B0001837BD4680BD00BFD8400020C84000204D
:1045C000D440002080B485B000AF4FF47053BB607E
:1045D000274BFB60FB6803F00703002B0CD0FB6844
:1045E0000733FB60FB6823F00703FB60BA68FB68D6
:1045F000D31A1F4A1344BB60FB687B601D4A7B686B
:1046000013601C4B00225A607B68BA681344FB603D
:104610000822FB689B1AFB60FB6823F00703FB6022
:10462000FB68154A1360144B1B6800225A60124B3A
:104630001B6800221A607B683B603B68FA68D21AEC
:104640003B685A600C4B1A683B681A603B685B68B1
:104650000A4A13603B685B68094A1360094B4FF0D4
:1046600000421A6000BF1437BD465DF8047B7047F6
:10467000BC040020BC400020C4400020CC400020EE
:10468000C8400020D840002080B485B000AF7860DA
:10469000284BFB6002E0FB681B68FB60FB681B6843
:1046A0007A689A42F7D8FB68BB60FB685B68BA68B7
:1046B00013447A689A4208D1FB685A687B685B6841
:1046C0001A44FB685A60FB687B607B68BB607B6850
:1046D0005B68BA681A44FB681B689A4218D1FB6889
:1046E0001A68154B1B689A420DD07B685A68FB68A4
:1046F0001B685B681A447B685A60FB681B681A6811
:104700007B681A6008E00C4B1A687B681A6003E04B
:10471000FB681A687B681A60FA687B689A4202D064
:10472000FB687A681A6000BF1437BD465DF8047BE9
:10473000704700BFBC400020C44000200244034634
:10474000934200D1704703F8011BF9E770B50D4D96
:104750000D4C641BA4100026A64209D10B4D0C4C35
:1047600000F018F8641BA4100026A64205D170BD05
:1047700055F8043B98470136EEE755F8043B984757
:104780000136F2E75448000854480008544800082D
:1047900058480008F8B500BFF8BC08BC9E467047F2
:0C47A000F8B500BFF8BC08BC9E4670478E
:1047AC0064656661756C745461736B00AC4700088A
:1047BC0075130008000000000000000080000000DD
:1047CC000000000000000000556C747261736F6E85
:1047DC00696346726F6E7400D44700088513000835
:1047EC00000000000000000080000000000000003D
:1047FC0000000000556C747261736F6E69634261E6
:10480C00636B000000480008CD1300080100000095
:10481C00000000008000000000000000000000000C
:10482C0049444C450000000000000000000000005E
:10483C00010203040607080900000000010203043A
:08484C00A0C1FF7F0100000084
:04485400C501000892
:04485800A1010008B2
:10485C000024F4001000000001000000AAAAAAAA7B
:0400000508001719BF
:00000001FF
